{
  "address": "0x7d817aa97b19b08C784F2A1d1f211c33fDE077B1",
  "abi": [
    {
      "inputs": [
        {
          "internalType": "uint256",
          "name": "subscriptionId",
          "type": "uint256"
        },
        {
          "internalType": "uint256",
          "name": "_blindBoxListFee",
          "type": "uint256"
        }
      ],
      "stateMutability": "nonpayable",
      "type": "constructor"
    },
    {
      "inputs": [
        {
          "internalType": "address",
          "name": "have",
          "type": "address"
        },
        {
          "internalType": "address",
          "name": "want",
          "type": "address"
        }
      ],
      "name": "OnlyCoordinatorCanFulfill",
      "type": "error"
    },
    {
      "inputs": [
        {
          "internalType": "address",
          "name": "have",
          "type": "address"
        },
        {
          "internalType": "address",
          "name": "owner",
          "type": "address"
        },
        {
          "internalType": "address",
          "name": "coordinator",
          "type": "address"
        }
      ],
      "name": "OnlyOwnerOrCoordinator",
      "type": "error"
    },
    {
      "inputs": [],
      "name": "ZeroAddress",
      "type": "error"
    },
    {
      "anonymous": false,
      "inputs": [
        {
          "indexed": true,
          "internalType": "uint256",
          "name": "boxId",
          "type": "uint256"
        },
        {
          "indexed": false,
          "internalType": "uint256",
          "name": "price",
          "type": "uint256"
        },
        {
          "indexed": false,
          "internalType": "address",
          "name": "nftContract",
          "type": "address"
        }
      ],
      "name": "BoxCreated",
      "type": "event"
    },
    {
      "anonymous": false,
      "inputs": [
        {
          "indexed": false,
          "internalType": "uint256",
          "name": "requestId",
          "type": "uint256"
        },
        {
          "indexed": true,
          "internalType": "uint256",
          "name": "boxId",
          "type": "uint256"
        },
        {
          "indexed": false,
          "internalType": "uint256",
          "name": "nftId",
          "type": "uint256"
        },
        {
          "indexed": false,
          "internalType": "address",
          "name": "buyer",
          "type": "address"
        }
      ],
      "name": "BoxPurchased",
      "type": "event"
    },
    {
      "anonymous": false,
      "inputs": [
        {
          "indexed": true,
          "internalType": "uint256",
          "name": "requestId",
          "type": "uint256"
        },
        {
          "indexed": false,
          "internalType": "uint256",
          "name": "boxId",
          "type": "uint256"
        },
        {
          "indexed": true,
          "internalType": "address",
          "name": "roller",
          "type": "address"
        }
      ],
      "name": "BoxPurchasedRequest",
      "type": "event"
    },
    {
      "anonymous": false,
      "inputs": [
        {
          "indexed": true,
          "internalType": "uint256",
          "name": "boxId",
          "type": "uint256"
        }
      ],
      "name": "BoxRemoved",
      "type": "event"
    },
    {
      "anonymous": false,
      "inputs": [
        {
          "indexed": false,
          "internalType": "address",
          "name": "vrfCoordinator",
          "type": "address"
        }
      ],
      "name": "CoordinatorSet",
      "type": "event"
    },
    {
      "anonymous": false,
      "inputs": [
        {
          "indexed": true,
          "internalType": "uint256",
          "name": "boxId",
          "type": "uint256"
        },
        {
          "indexed": false,
          "internalType": "uint256[]",
          "name": "nftIds",
          "type": "uint256[]"
        }
      ],
      "name": "NFTAdded",
      "type": "event"
    },
    {
      "anonymous": false,
      "inputs": [
        {
          "indexed": true,
          "internalType": "uint256",
          "name": "boxId",
          "type": "uint256"
        },
        {
          "indexed": false,
          "internalType": "uint256",
          "name": "nftId",
          "type": "uint256"
        },
        {
          "indexed": false,
          "internalType": "address",
          "name": "to",
          "type": "address"
        }
      ],
      "name": "NFTWithdrawn",
      "type": "event"
    },
    {
      "anonymous": false,
      "inputs": [
        {
          "indexed": true,
          "internalType": "address",
          "name": "from",
          "type": "address"
        },
        {
          "indexed": true,
          "internalType": "address",
          "name": "to",
          "type": "address"
        }
      ],
      "name": "OwnershipTransferRequested",
      "type": "event"
    },
    {
      "anonymous": false,
      "inputs": [
        {
          "indexed": true,
          "internalType": "address",
          "name": "from",
          "type": "address"
        },
        {
          "indexed": true,
          "internalType": "address",
          "name": "to",
          "type": "address"
        }
      ],
      "name": "OwnershipTransferred",
      "type": "event"
    },
    {
      "inputs": [],
      "name": "acceptOwnership",
      "outputs": [],
      "stateMutability": "nonpayable",
      "type": "function"
    },
    {
      "inputs": [
        {
          "internalType": "uint256",
          "name": "boxId",
          "type": "uint256"
        },
        {
          "internalType": "uint256[]",
          "name": "nftIds",
          "type": "uint256[]"
        }
      ],
      "name": "addNFTs",
      "outputs": [],
      "stateMutability": "nonpayable",
      "type": "function"
    },
    {
      "inputs": [],
      "name": "blindBoxListFee",
      "outputs": [
        {
          "internalType": "uint256",
          "name": "",
          "type": "uint256"
        }
      ],
      "stateMutability": "view",
      "type": "function"
    },
    {
      "inputs": [],
      "name": "boxCounter",
      "outputs": [
        {
          "internalType": "uint256",
          "name": "",
          "type": "uint256"
        }
      ],
      "stateMutability": "view",
      "type": "function"
    },
    {
      "inputs": [
        {
          "internalType": "uint256",
          "name": "",
          "type": "uint256"
        }
      ],
      "name": "boxes",
      "outputs": [
        {
          "internalType": "uint256",
          "name": "price",
          "type": "uint256"
        },
        {
          "internalType": "address",
          "name": "nftContract",
          "type": "address"
        },
        {
          "internalType": "bool",
          "name": "isActive",
          "type": "bool"
        }
      ],
      "stateMutability": "view",
      "type": "function"
    },
    {
      "inputs": [],
      "name": "callbackGasLimit",
      "outputs": [
        {
          "internalType": "uint32",
          "name": "",
          "type": "uint32"
        }
      ],
      "stateMutability": "view",
      "type": "function"
    },
    {
      "inputs": [
        {
          "internalType": "address",
          "name": "nftContract",
          "type": "address"
        },
        {
          "internalType": "uint256[]",
          "name": "nftIds",
          "type": "uint256[]"
        },
        {
          "internalType": "uint256",
          "name": "price",
          "type": "uint256"
        }
      ],
      "name": "createBox",
      "outputs": [],
      "stateMutability": "payable",
      "type": "function"
    },
    {
      "inputs": [],
      "name": "getContractBalance",
      "outputs": [
        {
          "internalType": "uint256",
          "name": "",
          "type": "uint256"
        }
      ],
      "stateMutability": "view",
      "type": "function"
    },
    {
      "inputs": [
        {
          "internalType": "address",
          "name": "user",
          "type": "address"
        }
      ],
      "name": "getRequestId",
      "outputs": [
        {
          "internalType": "uint256",
          "name": "",
          "type": "uint256"
        }
      ],
      "stateMutability": "view",
      "type": "function"
    },
    {
      "inputs": [],
      "name": "numWords",
      "outputs": [
        {
          "internalType": "uint32",
          "name": "",
          "type": "uint32"
        }
      ],
      "stateMutability": "view",
      "type": "function"
    },
    {
      "inputs": [
        {
          "internalType": "address",
          "name": "",
          "type": "address"
        },
        {
          "internalType": "address",
          "name": "",
          "type": "address"
        },
        {
          "internalType": "uint256",
          "name": "",
          "type": "uint256"
        },
        {
          "internalType": "bytes",
          "name": "",
          "type": "bytes"
        }
      ],
      "name": "onERC721Received",
      "outputs": [
        {
          "internalType": "bytes4",
          "name": "",
          "type": "bytes4"
        }
      ],
      "stateMutability": "pure",
      "type": "function"
    },
    {
      "inputs": [],
      "name": "owner",
      "outputs": [
        {
          "internalType": "address",
          "name": "",
          "type": "address"
        }
      ],
      "stateMutability": "view",
      "type": "function"
    },
    {
      "inputs": [
        {
          "internalType": "uint256",
          "name": "boxId",
          "type": "uint256"
        }
      ],
      "name": "purchaseBox",
      "outputs": [
        {
          "internalType": "uint256",
          "name": "requestId",
          "type": "uint256"
        }
      ],
      "stateMutability": "payable",
      "type": "function"
    },
    {
      "inputs": [
        {
          "internalType": "uint256",
          "name": "requestId",
          "type": "uint256"
        },
        {
          "internalType": "uint256[]",
          "name": "randomWords",
          "type": "uint256[]"
        }
      ],
      "name": "rawFulfillRandomWords",
      "outputs": [],
      "stateMutability": "nonpayable",
      "type": "function"
    },
    {
      "inputs": [
        {
          "internalType": "uint256",
          "name": "boxId",
          "type": "uint256"
        }
      ],
      "name": "removeBox",
      "outputs": [],
      "stateMutability": "nonpayable",
      "type": "function"
    },
    {
      "inputs": [],
      "name": "requestConfirmations",
      "outputs": [
        {
          "internalType": "uint16",
          "name": "",
          "type": "uint16"
        }
      ],
      "stateMutability": "view",
      "type": "function"
    },
    {
      "inputs": [],
      "name": "s_keyHash",
      "outputs": [
        {
          "internalType": "bytes32",
          "name": "",
          "type": "bytes32"
        }
      ],
      "stateMutability": "view",
      "type": "function"
    },
    {
      "inputs": [],
      "name": "s_subscriptionId",
      "outputs": [
        {
          "internalType": "uint256",
          "name": "",
          "type": "uint256"
        }
      ],
      "stateMutability": "view",
      "type": "function"
    },
    {
      "inputs": [],
      "name": "s_vrfCoordinator",
      "outputs": [
        {
          "internalType": "contract IVRFCoordinatorV2Plus",
          "name": "",
          "type": "address"
        }
      ],
      "stateMutability": "view",
      "type": "function"
    },
    {
      "inputs": [
        {
          "internalType": "address",
          "name": "_vrfCoordinator",
          "type": "address"
        }
      ],
      "name": "setCoordinator",
      "outputs": [],
      "stateMutability": "nonpayable",
      "type": "function"
    },
    {
      "inputs": [
        {
          "internalType": "address",
          "name": "to",
          "type": "address"
        }
      ],
      "name": "transferOwnership",
      "outputs": [],
      "stateMutability": "nonpayable",
      "type": "function"
    },
    {
      "inputs": [],
      "name": "vrfCoordinator",
      "outputs": [
        {
          "internalType": "address",
          "name": "",
          "type": "address"
        }
      ],
      "stateMutability": "view",
      "type": "function"
    },
    {
      "inputs": [],
      "name": "withdraw",
      "outputs": [],
      "stateMutability": "nonpayable",
      "type": "function"
    }
  ],
  "transactionHash": "0x42c07ad5bba3b9861b737ee8ded1ee877fb8f1a9675d6ecf717383a92e6d5684",
  "args": [
    "84826624238180177213586267631912933170225440835689132759189973316904218852467",
    "10000000000000000"
  ],
  "numDeployments": 6,
  "solcInputHash": "43c7ceab70f7fe9038c678474b4093b9",
  "bytecode": "0x6080604052600480546001600160a01b031916739ddfaca8183c41ad55329bdeed9f6a8d53168b1b1790557f787d74caea10b2b357790d5b5247c2f63d1d91572a9846f780606e4d953677ae600555600680546601000300030d406001600160501b03199091161790553480156200007657600080fd5b506040516200194738038062001947833981016040819052620000999162000231565b6004546001600160a01b03163380600081620000fc5760405162461bcd60e51b815260206004820152601860248201527f43616e6e6f7420736574206f776e657220746f207a65726f000000000000000060448201526064015b60405180910390fd5b600080546001600160a01b0319166001600160a01b03848116919091179091558116156200012f576200012f8162000186565b5050506001600160a01b0381166200015a5760405163d92e233d60e01b815260040160405180910390fd5b600280546001600160a01b0319166001600160a01b039290921691909117905560075560035562000256565b336001600160a01b03821603620001e05760405162461bcd60e51b815260206004820152601760248201527f43616e6e6f74207472616e7366657220746f2073656c660000000000000000006044820152606401620000f3565b600180546001600160a01b0319166001600160a01b0383811691821790925560008054604051929316917fed8889f560326eb138920d842192f0eb3dd22b4f139c87a2c57538e05bae12789190a350565b600080604083850312156200024557600080fd5b505080516020909101519092909150565b6116e180620002666000396000f3fe6080604052600436106101405760003560e01c806359d2817a116100b65780638da5cb5b1161006f5780638da5cb5b146103b75780638ea98117146103e95780639eccacf614610409578063a3e56fa814610429578063b0fb162f14610449578063f2fde38b1461047f57600080fd5b806359d2817a1461031c5780636f9fb98a1461033c57806379ba50971461034f5780637a0dad27146103645780637ccfd7fc1461037a5780638ac00021146103a157600080fd5b806324f746971161010857806324f74697146102285780633ccfd60b1461025a57806345bb327b1461026f5780634eca8894146102855780634ed3faf21461029b578063577c00cd1461030957600080fd5b8063098899c6146101455780630e8e756f1461016b578063150b7a021461018d5780631e612da8146101d25780631fe543e314610208575b600080fd5b6101586101533660046112b4565b61049f565b6040519081526020015b60405180910390f35b34801561017757600080fd5b5061018b610186366004611319565b6106be565b005b34801561019957600080fd5b506101b96101a836600461137a565b630a85bd0160e11b95945050505050565b6040516001600160e01b03199091168152602001610162565b3480156101de57600080fd5b506101586101ed366004611419565b6001600160a01b03166000908152600a602052604090205490565b34801561021457600080fd5b5061018b610223366004611319565b610853565b34801561023457600080fd5b506006546102459063ffffffff1681565b60405163ffffffff9091168152602001610162565b34801561026657600080fd5b5061018b6108a3565b34801561027b57600080fd5b5061015860055481565b34801561029157600080fd5b5061015860075481565b3480156102a757600080fd5b506102e46102b63660046112b4565b600960205260009081526040902080546002909101546001600160a01b03811690600160a01b900460ff1683565b604080519384526001600160a01b039092166020840152151590820152606001610162565b61018b61031736600461143d565b61092f565b34801561032857600080fd5b5061018b6103373660046112b4565b610ca8565b34801561034857600080fd5b5047610158565b34801561035b57600080fd5b5061018b610dd7565b34801561037057600080fd5b5061015860085481565b34801561038657600080fd5b50600654610245906601000000000000900463ffffffff1681565b3480156103ad57600080fd5b5061015860035481565b3480156103c357600080fd5b506000546001600160a01b03165b6040516001600160a01b039091168152602001610162565b3480156103f557600080fd5b5061018b610404366004611419565b610e81565b34801561041557600080fd5b506002546103d1906001600160a01b031681565b34801561043557600080fd5b506004546103d1906001600160a01b031681565b34801561045557600080fd5b5060065461046c90640100000000900461ffff1681565b60405161ffff9091168152602001610162565b34801561048b57600080fd5b5061018b61049a366004611419565b610f73565b60008181526009602052604081206002810154600160a01b900460ff166104e15760405162461bcd60e51b81526004016104d890611499565b60405180910390fd5b60018101546105215760405162461bcd60e51b815260206004820152600c60248201526b426f7820697320656d70747960a01b60448201526064016104d8565b80543410156105695760405162461bcd60e51b8152602060048201526014602482015273125b9cdd59999a58da595b9d081c185e5b595b9d60621b60448201526064016104d8565b6002546040805160c081018252600554815260035460208083019190915260065461ffff6401000000008204168385015263ffffffff808216606085015266010000000000009091041660808301528251908101909252600082526001600160a01b0390921691639b1c385e9160a08201906105e490610f87565b8152506040518263ffffffff1660e01b815260040161060391906114c4565b6020604051808303816000875af1158015610622573d6000803e3d6000fd5b505050506040513d601f19601f820116820180604052508101906106469190611560565b6000818152600b6020908152604080832080546001600160a01b03191633908117909155600c8352818420889055808452600a83529281902084905551868152929450909184917f71e1c886cf9c7265f0e0673f1630c945b4c4059a84a3faf3aa7c3814f7c206cc910160405180910390a350919050565b6106c6610ff8565b60008381526009602052604090206002810154600160a01b900460ff166106ff5760405162461bcd60e51b81526004016104d890611499565b8161073f5760405162461bcd60e51b815260206004820152601060248201526f139bc81391951cc81c1c9bdd9a59195960821b60448201526064016104d8565b60005b828110156108125760028201546001600160a01b03166342842e0e333087878681811061077157610771611579565b905060200201356040518463ffffffff1660e01b81526004016107969392919061158f565b600060405180830381600087803b1580156107b057600080fd5b505af11580156107c4573d6000803e3d6000fd5b50505050816001018484838181106107de576107de611579565b835460018101855560009485526020948590209190940292909201359190920155508061080a816115c9565b915050610742565b50837f48e28eaeb219b85eeffde4ad6b5a6c4a1b5d015b45b9e7f4fb0280fbd2e1a00c84846040516108459291906115e2565b60405180910390a250505050565b6002546001600160a01b031633146108935760025460405163073e64fd60e21b81523360048201526001600160a01b0390911660248201526044016104d8565b61089e83838361104d565b505050565b6108ab610ff8565b47806108f25760405162461bcd60e51b81526020600482015260166024820152754e6f2062616c616e636520746f20776974686472617760501b60448201526064016104d8565b600080546040516001600160a01b039091169183156108fc02918491818181858888f1935050505015801561092b573d6000803e3d6000fd5b5050565b610937610ff8565b6001600160a01b0384166109845760405162461bcd60e51b8152602060048201526014602482015273125b9d985b1a59081391950818dbdb9d1c9858dd60621b60448201526064016104d8565b816109c45760405162461bcd60e51b815260206004820152601060248201526f139bc81391951cc81c1c9bdd9a59195960821b60448201526064016104d8565b6000546001600160a01b03163314610a1b57600754341015610a1b5760405162461bcd60e51b815260206004820152601060248201526f496e73756666696369656e742066656560801b60448201526064016104d8565b60088054906000610a2b836115c9565b909155505060085460008181526009602052604081208381556002810180546001600160a81b0319166001600160a01b03891617600160a01b179055905b84811015610c5c576000868683818110610a8557610a85611579565b905060200201359050306001600160a01b0316886001600160a01b031663081812fc836040518263ffffffff1660e01b8152600401610ac691815260200190565b602060405180830381865afa158015610ae3573d6000803e3d6000fd5b505050506040513d601f19601f82011682018060405250810190610b07919061161b565b6001600160a01b03161480610b85575060405163e985e9c560e01b81523360048201523060248201526001600160a01b0389169063e985e9c590604401602060405180830381865afa158015610b61573d6000803e3d6000fd5b505050506040513d601f19601f82011682018060405250810190610b859190611638565b610bd15760405162461bcd60e51b815260206004820152601d60248201527f4e4654206e6f7420617070726f76656420666f72207472616e7366657200000060448201526064016104d8565b604051632142170760e11b81526001600160a01b038916906342842e0e90610c019033903090869060040161158f565b600060405180830381600087803b158015610c1b57600080fd5b505af1158015610c2f573d6000803e3d6000fd5b50505050600183810180549182018155600090815260209020015580610c54816115c9565b915050610a69565b50604080518481526001600160a01b038816602082015283917f686d8371a57249b1d76bd1a89039412b1e01c4517985d858de342f0401f40295910160405180910390a2505050505050565b610cb0610ff8565b60008181526009602052604090206002810154600160a01b900460ff16610ce95760405162461bcd60e51b81526004016104d890611499565b60005b6001820154811015610d98576000826001018281548110610d0f57610d0f611579565b6000918252602090912001546002840154604051632142170760e11b81529192506001600160a01b0316906342842e0e90610d529030903390869060040161158f565b600060405180830381600087803b158015610d6c57600080fd5b505af1158015610d80573d6000803e3d6000fd5b50505050508080610d90906115c9565b915050610cec565b5060028101805460ff60a01b1916905560405182907f39c4075a3427393cc79841c9441c046377afac9c2a2ec2a5ced42f23b127e75890600090a25050565b6001546001600160a01b03163314610e2a5760405162461bcd60e51b815260206004820152601660248201527526bab9ba10313290383937b837b9b2b21037bbb732b960511b60448201526064016104d8565b60008054336001600160a01b0319808316821784556001805490911690556040516001600160a01b0390921692909183917f8be0079c531659141344cd1fd0a4f28419497f9722a3daafe3b4186f6b6457e091a350565b6000546001600160a01b03163314801590610ea757506002546001600160a01b03163314155b15610ef85733610ebf6000546001600160a01b031690565b60025460405163061db9c160e01b81526001600160a01b03938416600482015291831660248301529190911660448201526064016104d8565b6001600160a01b038116610f1f5760405163d92e233d60e01b815260040160405180910390fd5b600280546001600160a01b0319166001600160a01b0383169081179091556040519081527fd1a6a14209a385a964d036e404cb5cfb71f4000cdb03c9366292430787261be69060200160405180910390a150565b610f7b610ff8565b610f848161120b565b50565b60607f92fd13387c7fe7befbc38d303d6468778fb9731bc4583f17d92989c6fcfdeaaa82604051602401610fc091511515815260200190565b60408051601f198184030181529190526020810180516001600160e01b03166001600160e01b03199093169290921790915292915050565b6000546001600160a01b0316331461104b5760405162461bcd60e51b815260206004820152601660248201527527b7363c9031b0b63630b1363290313c9037bbb732b960511b60448201526064016104d8565b565b6000838152600b6020908152604080832054600c835281842054808552600990935290832060018101546001600160a01b039092169390918686838161109557611095611579565b905060200201356110a6919061165a565b905060008260010182815481106110bf576110bf611579565b6000918252602090912001546002840154604051632142170760e11b81529192506001600160a01b0316906342842e0e906111029030908990869060040161158f565b600060405180830381600087803b15801561111c57600080fd5b505af1158015611130573d6000803e3d6000fd5b505050506001838101805490916111469161167c565b8154811061115657611156611579565b906000526020600020015483600101838154811061117657611176611579565b6000918252602090912001556001830180548061119557611195611695565b60019003818190600052602060002001600090559055837fddd95c0fd29204619fa452bc152b20209cec665d50aef28fa3a0e532e9b27f1c8983886040516111f99392919092835260208301919091526001600160a01b0316604082015260600190565b60405180910390a25050505050505050565b336001600160a01b038216036112635760405162461bcd60e51b815260206004820152601760248201527f43616e6e6f74207472616e7366657220746f2073656c6600000000000000000060448201526064016104d8565b600180546001600160a01b0319166001600160a01b0383811691821790925560008054604051929316917fed8889f560326eb138920d842192f0eb3dd22b4f139c87a2c57538e05bae12789190a350565b6000602082840312156112c657600080fd5b5035919050565b60008083601f8401126112df57600080fd5b50813567ffffffffffffffff8111156112f757600080fd5b6020830191508360208260051b850101111561131257600080fd5b9250929050565b60008060006040848603121561132e57600080fd5b83359250602084013567ffffffffffffffff81111561134c57600080fd5b611358868287016112cd565b9497909650939450505050565b6001600160a01b0381168114610f8457600080fd5b60008060008060006080868803121561139257600080fd5b853561139d81611365565b945060208601356113ad81611365565b935060408601359250606086013567ffffffffffffffff808211156113d157600080fd5b818801915088601f8301126113e557600080fd5b8135818111156113f457600080fd5b89602082850101111561140657600080fd5b9699959850939650602001949392505050565b60006020828403121561142b57600080fd5b813561143681611365565b9392505050565b6000806000806060858703121561145357600080fd5b843561145e81611365565b9350602085013567ffffffffffffffff81111561147a57600080fd5b611486878288016112cd565b9598909750949560400135949350505050565b602080825260119082015270426f78206973206e6f742061637469766560781b604082015260600190565b6000602080835283518184015280840151604084015261ffff6040850151166060840152606084015163ffffffff80821660808601528060808701511660a0860152505060a084015160c08085015280518060e086015260005b8181101561153b578281018401518682016101000152830161151e565b506101009250600083828701015282601f19601f830116860101935050505092915050565b60006020828403121561157257600080fd5b5051919050565b634e487b7160e01b600052603260045260246000fd5b6001600160a01b039384168152919092166020820152604081019190915260600190565b634e487b7160e01b600052601160045260246000fd5b6000600182016115db576115db6115b3565b5060010190565b6020808252810182905260006001600160fb1b0383111561160257600080fd5b8260051b80856040850137919091016040019392505050565b60006020828403121561162d57600080fd5b815161143681611365565b60006020828403121561164a57600080fd5b8151801515811461143657600080fd5b60008261167757634e487b7160e01b600052601260045260246000fd5b500690565b8181038181111561168f5761168f6115b3565b92915050565b634e487b7160e01b600052603160045260246000fdfea264697066735822122095001cfecc174906e761beebb1460fc331047566658c45783efe48e0e982694664736f6c63430008140033",
  "devdoc": {
    "kind": "dev",
    "methods": {},
    "version": 1
  },
  "userdoc": {
    "kind": "user",
    "methods": {
      "acceptOwnership()": {
        "notice": "Allows an ownership transfer to be completed by the recipient."
      },
      "owner()": {
        "notice": "Get the current owner"
      },
      "setCoordinator(address)": {
        "notice": "Sets the VRF Coordinator addressThis method should only be callable by the coordinator or contract owner"
      },
      "transferOwnership(address)": {
        "notice": "Allows an owner to begin transferring ownership to a new address."
      }
    },
    "version": 1
  },
  "storageLayout": {
    "storage": [
      {
        "astId": 97,
        "contract": "contracts/BlindBox.sol:BlindBox",
        "label": "s_owner",
        "offset": 0,
        "slot": "0",
        "type": "t_address"
      },
      {
        "astId": 99,
        "contract": "contracts/BlindBox.sol:BlindBox",
        "label": "s_pendingOwner",
        "offset": 0,
        "slot": "1",
        "type": "t_address"
      },
      {
        "astId": 299,
        "contract": "contracts/BlindBox.sol:BlindBox",
        "label": "s_vrfCoordinator",
        "offset": 0,
        "slot": "2",
        "type": "t_contract(IVRFCoordinatorV2Plus)448"
      },
      {
        "astId": 4321,
        "contract": "contracts/BlindBox.sol:BlindBox",
        "label": "s_subscriptionId",
        "offset": 0,
        "slot": "3",
        "type": "t_uint256"
      },
      {
        "astId": 4324,
        "contract": "contracts/BlindBox.sol:BlindBox",
        "label": "vrfCoordinator",
        "offset": 0,
        "slot": "4",
        "type": "t_address"
      },
      {
        "astId": 4327,
        "contract": "contracts/BlindBox.sol:BlindBox",
        "label": "s_keyHash",
        "offset": 0,
        "slot": "5",
        "type": "t_bytes32"
      },
      {
        "astId": 4330,
        "contract": "contracts/BlindBox.sol:BlindBox",
        "label": "callbackGasLimit",
        "offset": 0,
        "slot": "6",
        "type": "t_uint32"
      },
      {
        "astId": 4333,
        "contract": "contracts/BlindBox.sol:BlindBox",
        "label": "requestConfirmations",
        "offset": 4,
        "slot": "6",
        "type": "t_uint16"
      },
      {
        "astId": 4336,
        "contract": "contracts/BlindBox.sol:BlindBox",
        "label": "numWords",
        "offset": 6,
        "slot": "6",
        "type": "t_uint32"
      },
      {
        "astId": 4357,
        "contract": "contracts/BlindBox.sol:BlindBox",
        "label": "blindBoxListFee",
        "offset": 0,
        "slot": "7",
        "type": "t_uint256"
      },
      {
        "astId": 4359,
        "contract": "contracts/BlindBox.sol:BlindBox",
        "label": "boxCounter",
        "offset": 0,
        "slot": "8",
        "type": "t_uint256"
      },
      {
        "astId": 4364,
        "contract": "contracts/BlindBox.sol:BlindBox",
        "label": "boxes",
        "offset": 0,
        "slot": "9",
        "type": "t_mapping(t_uint256,t_struct(Box)4319_storage)"
      },
      {
        "astId": 4368,
        "contract": "contracts/BlindBox.sol:BlindBox",
        "label": "userRequestId",
        "offset": 0,
        "slot": "10",
        "type": "t_mapping(t_address,t_uint256)"
      },
      {
        "astId": 4372,
        "contract": "contracts/BlindBox.sol:BlindBox",
        "label": "s_rollers",
        "offset": 0,
        "slot": "11",
        "type": "t_mapping(t_uint256,t_address)"
      },
      {
        "astId": 4376,
        "contract": "contracts/BlindBox.sol:BlindBox",
        "label": "s_boxIds",
        "offset": 0,
        "slot": "12",
        "type": "t_mapping(t_uint256,t_uint256)"
      }
    ],
    "types": {
      "t_address": {
        "encoding": "inplace",
        "label": "address",
        "numberOfBytes": "20"
      },
      "t_array(t_uint256)dyn_storage": {
        "base": "t_uint256",
        "encoding": "dynamic_array",
        "label": "uint256[]",
        "numberOfBytes": "32"
      },
      "t_bool": {
        "encoding": "inplace",
        "label": "bool",
        "numberOfBytes": "1"
      },
      "t_bytes32": {
        "encoding": "inplace",
        "label": "bytes32",
        "numberOfBytes": "32"
      },
      "t_contract(IVRFCoordinatorV2Plus)448": {
        "encoding": "inplace",
        "label": "contract IVRFCoordinatorV2Plus",
        "numberOfBytes": "20"
      },
      "t_mapping(t_address,t_uint256)": {
        "encoding": "mapping",
        "key": "t_address",
        "label": "mapping(address => uint256)",
        "numberOfBytes": "32",
        "value": "t_uint256"
      },
      "t_mapping(t_uint256,t_address)": {
        "encoding": "mapping",
        "key": "t_uint256",
        "label": "mapping(uint256 => address)",
        "numberOfBytes": "32",
        "value": "t_address"
      },
      "t_mapping(t_uint256,t_struct(Box)4319_storage)": {
        "encoding": "mapping",
        "key": "t_uint256",
        "label": "mapping(uint256 => struct BlindBox.Box)",
        "numberOfBytes": "32",
        "value": "t_struct(Box)4319_storage"
      },
      "t_mapping(t_uint256,t_uint256)": {
        "encoding": "mapping",
        "key": "t_uint256",
        "label": "mapping(uint256 => uint256)",
        "numberOfBytes": "32",
        "value": "t_uint256"
      },
      "t_struct(Box)4319_storage": {
        "encoding": "inplace",
        "label": "struct BlindBox.Box",
        "members": [
          {
            "astId": 4311,
            "contract": "contracts/BlindBox.sol:BlindBox",
            "label": "price",
            "offset": 0,
            "slot": "0",
            "type": "t_uint256"
          },
          {
            "astId": 4314,
            "contract": "contracts/BlindBox.sol:BlindBox",
            "label": "nftIds",
            "offset": 0,
            "slot": "1",
            "type": "t_array(t_uint256)dyn_storage"
          },
          {
            "astId": 4316,
            "contract": "contracts/BlindBox.sol:BlindBox",
            "label": "nftContract",
            "offset": 0,
            "slot": "2",
            "type": "t_address"
          },
          {
            "astId": 4318,
            "contract": "contracts/BlindBox.sol:BlindBox",
            "label": "isActive",
            "offset": 20,
            "slot": "2",
            "type": "t_bool"
          }
        ],
        "numberOfBytes": "96"
      },
      "t_uint16": {
        "encoding": "inplace",
        "label": "uint16",
        "numberOfBytes": "2"
      },
      "t_uint256": {
        "encoding": "inplace",
        "label": "uint256",
        "numberOfBytes": "32"
      },
      "t_uint32": {
        "encoding": "inplace",
        "label": "uint32",
        "numberOfBytes": "4"
      }
    }
  }
}