{
  "address": "0x30ecbdB14Dc042E4e68aA5181de4f5B317b23eB7",
  "abi": [
    {
      "inputs": [
        {
          "internalType": "uint256",
          "name": "_listFee",
          "type": "uint256"
        },
        {
          "internalType": "uint256",
          "name": "_userMintFee",
          "type": "uint256"
        }
      ],
      "stateMutability": "nonpayable",
      "type": "constructor"
    },
    {
      "anonymous": false,
      "inputs": [
        {
          "indexed": false,
          "internalType": "uint256",
          "name": "tokenId",
          "type": "uint256"
        },
        {
          "indexed": false,
          "internalType": "address",
          "name": "recipient",
          "type": "address"
        }
      ],
      "name": "Airdrop",
      "type": "event"
    },
    {
      "anonymous": false,
      "inputs": [
        {
          "indexed": true,
          "internalType": "address",
          "name": "owner",
          "type": "address"
        },
        {
          "indexed": true,
          "internalType": "address",
          "name": "approved",
          "type": "address"
        },
        {
          "indexed": true,
          "internalType": "uint256",
          "name": "tokenId",
          "type": "uint256"
        }
      ],
      "name": "Approval",
      "type": "event"
    },
    {
      "anonymous": false,
      "inputs": [
        {
          "indexed": true,
          "internalType": "address",
          "name": "owner",
          "type": "address"
        },
        {
          "indexed": true,
          "internalType": "address",
          "name": "operator",
          "type": "address"
        },
        {
          "indexed": false,
          "internalType": "bool",
          "name": "approved",
          "type": "bool"
        }
      ],
      "name": "ApprovalForAll",
      "type": "event"
    },
    {
      "anonymous": false,
      "inputs": [
        {
          "indexed": false,
          "internalType": "uint256",
          "name": "_fromTokenId",
          "type": "uint256"
        },
        {
          "indexed": false,
          "internalType": "uint256",
          "name": "_toTokenId",
          "type": "uint256"
        }
      ],
      "name": "BatchMetadataUpdate",
      "type": "event"
    },
    {
      "anonymous": false,
      "inputs": [
        {
          "indexed": true,
          "internalType": "uint256",
          "name": "tokenId",
          "type": "uint256"
        },
        {
          "indexed": false,
          "internalType": "uint256",
          "name": "price",
          "type": "uint256"
        },
        {
          "indexed": false,
          "internalType": "address",
          "name": "seller",
          "type": "address"
        }
      ],
      "name": "Listed",
      "type": "event"
    },
    {
      "anonymous": false,
      "inputs": [
        {
          "indexed": false,
          "internalType": "uint256",
          "name": "_tokenId",
          "type": "uint256"
        }
      ],
      "name": "MetadataUpdate",
      "type": "event"
    },
    {
      "anonymous": false,
      "inputs": [
        {
          "indexed": false,
          "internalType": "uint256",
          "name": "tokenId",
          "type": "uint256"
        },
        {
          "indexed": false,
          "internalType": "address",
          "name": "owner",
          "type": "address"
        },
        {
          "indexed": false,
          "internalType": "string",
          "name": "tokenURI",
          "type": "string"
        },
        {
          "indexed": false,
          "internalType": "uint96",
          "name": "royaltyRate",
          "type": "uint96"
        },
        {
          "indexed": false,
          "internalType": "enum YourCollectible.Rarity",
          "name": "rarity",
          "type": "uint8"
        }
      ],
      "name": "NFTMinted",
      "type": "event"
    },
    {
      "anonymous": false,
      "inputs": [
        {
          "indexed": true,
          "internalType": "address",
          "name": "previousOwner",
          "type": "address"
        },
        {
          "indexed": true,
          "internalType": "address",
          "name": "newOwner",
          "type": "address"
        }
      ],
      "name": "OwnershipTransferred",
      "type": "event"
    },
    {
      "anonymous": false,
      "inputs": [
        {
          "indexed": true,
          "internalType": "uint256",
          "name": "tokenId",
          "type": "uint256"
        },
        {
          "indexed": false,
          "internalType": "address",
          "name": "seller",
          "type": "address"
        },
        {
          "indexed": false,
          "internalType": "address",
          "name": "buyer",
          "type": "address"
        },
        {
          "indexed": false,
          "internalType": "uint256",
          "name": "price",
          "type": "uint256"
        },
        {
          "indexed": false,
          "internalType": "uint256",
          "name": "royaltyAmount",
          "type": "uint256"
        }
      ],
      "name": "Purchased",
      "type": "event"
    },
    {
      "anonymous": false,
      "inputs": [
        {
          "indexed": true,
          "internalType": "address",
          "name": "from",
          "type": "address"
        },
        {
          "indexed": true,
          "internalType": "address",
          "name": "to",
          "type": "address"
        },
        {
          "indexed": true,
          "internalType": "uint256",
          "name": "tokenId",
          "type": "uint256"
        }
      ],
      "name": "Transfer",
      "type": "event"
    },
    {
      "inputs": [
        {
          "internalType": "address[]",
          "name": "recipients",
          "type": "address[]"
        },
        {
          "internalType": "uint256[]",
          "name": "tokenIds",
          "type": "uint256[]"
        }
      ],
      "name": "airdrop",
      "outputs": [],
      "stateMutability": "nonpayable",
      "type": "function"
    },
    {
      "inputs": [
        {
          "internalType": "address",
          "name": "to",
          "type": "address"
        },
        {
          "internalType": "uint256",
          "name": "tokenId",
          "type": "uint256"
        }
      ],
      "name": "approve",
      "outputs": [],
      "stateMutability": "nonpayable",
      "type": "function"
    },
    {
      "inputs": [
        {
          "internalType": "address",
          "name": "owner",
          "type": "address"
        }
      ],
      "name": "balanceOf",
      "outputs": [
        {
          "internalType": "uint256",
          "name": "",
          "type": "uint256"
        }
      ],
      "stateMutability": "view",
      "type": "function"
    },
    {
      "inputs": [
        {
          "internalType": "address",
          "name": "to",
          "type": "address"
        },
        {
          "internalType": "uint256[]",
          "name": "tokenIds",
          "type": "uint256[]"
        }
      ],
      "name": "batchApprove",
      "outputs": [],
      "stateMutability": "nonpayable",
      "type": "function"
    },
    {
      "inputs": [
        {
          "internalType": "address",
          "name": "to",
          "type": "address"
        },
        {
          "internalType": "string[]",
          "name": "uris",
          "type": "string[]"
        },
        {
          "internalType": "uint96[]",
          "name": "royaltyRates",
          "type": "uint96[]"
        }
      ],
      "name": "batchMintItems",
      "outputs": [],
      "stateMutability": "nonpayable",
      "type": "function"
    },
    {
      "inputs": [
        {
          "internalType": "uint256",
          "name": "tokenId",
          "type": "uint256"
        }
      ],
      "name": "delistNFT",
      "outputs": [],
      "stateMutability": "nonpayable",
      "type": "function"
    },
    {
      "inputs": [
        {
          "internalType": "uint256",
          "name": "tokenId",
          "type": "uint256"
        }
      ],
      "name": "getApproved",
      "outputs": [
        {
          "internalType": "address",
          "name": "",
          "type": "address"
        }
      ],
      "stateMutability": "view",
      "type": "function"
    },
    {
      "inputs": [],
      "name": "getContractBalance",
      "outputs": [
        {
          "internalType": "uint256",
          "name": "",
          "type": "uint256"
        }
      ],
      "stateMutability": "view",
      "type": "function"
    },
    {
      "inputs": [
        {
          "internalType": "uint256",
          "name": "tokenId",
          "type": "uint256"
        }
      ],
      "name": "getRarity",
      "outputs": [
        {
          "internalType": "string",
          "name": "",
          "type": "string"
        }
      ],
      "stateMutability": "view",
      "type": "function"
    },
    {
      "inputs": [
        {
          "internalType": "uint256",
          "name": "tokenId",
          "type": "uint256"
        }
      ],
      "name": "getRoyaltyRate",
      "outputs": [
        {
          "internalType": "uint256",
          "name": "",
          "type": "uint256"
        }
      ],
      "stateMutability": "view",
      "type": "function"
    },
    {
      "inputs": [
        {
          "internalType": "address",
          "name": "owner",
          "type": "address"
        },
        {
          "internalType": "address",
          "name": "operator",
          "type": "address"
        }
      ],
      "name": "isApprovedForAll",
      "outputs": [
        {
          "internalType": "bool",
          "name": "",
          "type": "bool"
        }
      ],
      "stateMutability": "view",
      "type": "function"
    },
    {
      "inputs": [
        {
          "internalType": "uint256",
          "name": "tokenId",
          "type": "uint256"
        },
        {
          "internalType": "uint256",
          "name": "price",
          "type": "uint256"
        }
      ],
      "name": "listNFT",
      "outputs": [],
      "stateMutability": "payable",
      "type": "function"
    },
    {
      "inputs": [],
      "name": "listingFee",
      "outputs": [
        {
          "internalType": "uint256",
          "name": "",
          "type": "uint256"
        }
      ],
      "stateMutability": "view",
      "type": "function"
    },
    {
      "inputs": [
        {
          "internalType": "uint256",
          "name": "",
          "type": "uint256"
        }
      ],
      "name": "listings",
      "outputs": [
        {
          "internalType": "address",
          "name": "seller",
          "type": "address"
        },
        {
          "internalType": "uint256",
          "name": "price",
          "type": "uint256"
        },
        {
          "internalType": "uint256",
          "name": "listingFee",
          "type": "uint256"
        },
        {
          "internalType": "bool",
          "name": "isList",
          "type": "bool"
        }
      ],
      "stateMutability": "view",
      "type": "function"
    },
    {
      "inputs": [
        {
          "internalType": "address",
          "name": "to",
          "type": "address"
        },
        {
          "internalType": "string",
          "name": "uri",
          "type": "string"
        },
        {
          "internalType": "uint96",
          "name": "royaltyRate",
          "type": "uint96"
        }
      ],
      "name": "mintItem",
      "outputs": [],
      "stateMutability": "payable",
      "type": "function"
    },
    {
      "inputs": [],
      "name": "name",
      "outputs": [
        {
          "internalType": "string",
          "name": "",
          "type": "string"
        }
      ],
      "stateMutability": "view",
      "type": "function"
    },
    {
      "inputs": [
        {
          "internalType": "address",
          "name": "",
          "type": "address"
        },
        {
          "internalType": "address",
          "name": "",
          "type": "address"
        },
        {
          "internalType": "uint256",
          "name": "",
          "type": "uint256"
        },
        {
          "internalType": "bytes",
          "name": "",
          "type": "bytes"
        }
      ],
      "name": "onERC721Received",
      "outputs": [
        {
          "internalType": "bytes4",
          "name": "",
          "type": "bytes4"
        }
      ],
      "stateMutability": "pure",
      "type": "function"
    },
    {
      "inputs": [],
      "name": "owner",
      "outputs": [
        {
          "internalType": "address",
          "name": "",
          "type": "address"
        }
      ],
      "stateMutability": "view",
      "type": "function"
    },
    {
      "inputs": [
        {
          "internalType": "uint256",
          "name": "tokenId",
          "type": "uint256"
        }
      ],
      "name": "ownerOf",
      "outputs": [
        {
          "internalType": "address",
          "name": "",
          "type": "address"
        }
      ],
      "stateMutability": "view",
      "type": "function"
    },
    {
      "inputs": [
        {
          "internalType": "uint256",
          "name": "tokenId",
          "type": "uint256"
        }
      ],
      "name": "purchaseNFT",
      "outputs": [],
      "stateMutability": "payable",
      "type": "function"
    },
    {
      "inputs": [],
      "name": "renounceOwnership",
      "outputs": [],
      "stateMutability": "nonpayable",
      "type": "function"
    },
    {
      "inputs": [
        {
          "internalType": "uint256",
          "name": "tokenId",
          "type": "uint256"
        },
        {
          "internalType": "uint256",
          "name": "salePrice",
          "type": "uint256"
        }
      ],
      "name": "royaltyInfo",
      "outputs": [
        {
          "internalType": "address",
          "name": "",
          "type": "address"
        },
        {
          "internalType": "uint256",
          "name": "",
          "type": "uint256"
        }
      ],
      "stateMutability": "view",
      "type": "function"
    },
    {
      "inputs": [
        {
          "internalType": "address",
          "name": "from",
          "type": "address"
        },
        {
          "internalType": "address",
          "name": "to",
          "type": "address"
        },
        {
          "internalType": "uint256",
          "name": "tokenId",
          "type": "uint256"
        }
      ],
      "name": "safeTransferFrom",
      "outputs": [],
      "stateMutability": "nonpayable",
      "type": "function"
    },
    {
      "inputs": [
        {
          "internalType": "address",
          "name": "from",
          "type": "address"
        },
        {
          "internalType": "address",
          "name": "to",
          "type": "address"
        },
        {
          "internalType": "uint256",
          "name": "tokenId",
          "type": "uint256"
        },
        {
          "internalType": "bytes",
          "name": "data",
          "type": "bytes"
        }
      ],
      "name": "safeTransferFrom",
      "outputs": [],
      "stateMutability": "nonpayable",
      "type": "function"
    },
    {
      "inputs": [
        {
          "internalType": "address",
          "name": "operator",
          "type": "address"
        },
        {
          "internalType": "bool",
          "name": "approved",
          "type": "bool"
        }
      ],
      "name": "setApprovalForAll",
      "outputs": [],
      "stateMutability": "nonpayable",
      "type": "function"
    },
    {
      "inputs": [
        {
          "internalType": "bytes4",
          "name": "interfaceId",
          "type": "bytes4"
        }
      ],
      "name": "supportsInterface",
      "outputs": [
        {
          "internalType": "bool",
          "name": "",
          "type": "bool"
        }
      ],
      "stateMutability": "view",
      "type": "function"
    },
    {
      "inputs": [],
      "name": "symbol",
      "outputs": [
        {
          "internalType": "string",
          "name": "",
          "type": "string"
        }
      ],
      "stateMutability": "view",
      "type": "function"
    },
    {
      "inputs": [
        {
          "internalType": "uint256",
          "name": "index",
          "type": "uint256"
        }
      ],
      "name": "tokenByIndex",
      "outputs": [
        {
          "internalType": "uint256",
          "name": "",
          "type": "uint256"
        }
      ],
      "stateMutability": "view",
      "type": "function"
    },
    {
      "inputs": [],
      "name": "tokenIdCounter",
      "outputs": [
        {
          "internalType": "uint256",
          "name": "_value",
          "type": "uint256"
        }
      ],
      "stateMutability": "view",
      "type": "function"
    },
    {
      "inputs": [
        {
          "internalType": "address",
          "name": "owner",
          "type": "address"
        },
        {
          "internalType": "uint256",
          "name": "index",
          "type": "uint256"
        }
      ],
      "name": "tokenOfOwnerByIndex",
      "outputs": [
        {
          "internalType": "uint256",
          "name": "",
          "type": "uint256"
        }
      ],
      "stateMutability": "view",
      "type": "function"
    },
    {
      "inputs": [
        {
          "internalType": "uint256",
          "name": "",
          "type": "uint256"
        }
      ],
      "name": "tokenRarity",
      "outputs": [
        {
          "internalType": "enum YourCollectible.Rarity",
          "name": "",
          "type": "uint8"
        }
      ],
      "stateMutability": "view",
      "type": "function"
    },
    {
      "inputs": [
        {
          "internalType": "uint256",
          "name": "tokenId",
          "type": "uint256"
        }
      ],
      "name": "tokenURI",
      "outputs": [
        {
          "internalType": "string",
          "name": "",
          "type": "string"
        }
      ],
      "stateMutability": "view",
      "type": "function"
    },
    {
      "inputs": [],
      "name": "totalBalance",
      "outputs": [
        {
          "internalType": "uint256",
          "name": "",
          "type": "uint256"
        }
      ],
      "stateMutability": "view",
      "type": "function"
    },
    {
      "inputs": [],
      "name": "totalSupply",
      "outputs": [
        {
          "internalType": "uint256",
          "name": "",
          "type": "uint256"
        }
      ],
      "stateMutability": "view",
      "type": "function"
    },
    {
      "inputs": [
        {
          "internalType": "address",
          "name": "from",
          "type": "address"
        },
        {
          "internalType": "address",
          "name": "to",
          "type": "address"
        },
        {
          "internalType": "uint256",
          "name": "tokenId",
          "type": "uint256"
        }
      ],
      "name": "transferFrom",
      "outputs": [],
      "stateMutability": "nonpayable",
      "type": "function"
    },
    {
      "inputs": [
        {
          "internalType": "address",
          "name": "newOwner",
          "type": "address"
        }
      ],
      "name": "transferOwnership",
      "outputs": [],
      "stateMutability": "nonpayable",
      "type": "function"
    },
    {
      "inputs": [
        {
          "internalType": "uint256",
          "name": "tokenId",
          "type": "uint256"
        },
        {
          "internalType": "uint256",
          "name": "price",
          "type": "uint256"
        }
      ],
      "name": "updateNFTPrice",
      "outputs": [],
      "stateMutability": "nonpayable",
      "type": "function"
    },
    {
      "inputs": [],
      "name": "userMintFee",
      "outputs": [
        {
          "internalType": "uint256",
          "name": "",
          "type": "uint256"
        }
      ],
      "stateMutability": "view",
      "type": "function"
    },
    {
      "inputs": [],
      "name": "withdraw",
      "outputs": [],
      "stateMutability": "nonpayable",
      "type": "function"
    }
  ],
  "transactionHash": "0x3075546bf91a59b5fdeb45419cdc63aa3550a899f2cc7ba8a61183bebd7926ec",
  "args": [
    "1000000000000000",
    "50000000000000000"
  ],
  "numDeployments": 22,
  "solcInputHash": "6cabe9d7ee3cf3b7d542f099810e527a",
  "bytecode": "0x608060405260006013553480156200001657600080fd5b5060405162003c4b38038062003c4b83398101604081905262000039916200011f565b6040518060400160405280600f81526020016e596f7572436f6c6c65637469626c6560881b815250604051806040016040528060038152602001622ca1a160e91b81525081600290816200008e9190620001e9565b5060036200009d8282620001e9565b505050620000ba620000b4620000c960201b60201c565b620000cd565b600f91909155601055620002b5565b3390565b600d80546001600160a01b038381166001600160a01b0319831681179093556040519116919082907f8be0079c531659141344cd1fd0a4f28419497f9722a3daafe3b4186f6b6457e090600090a35050565b600080604083850312156200013357600080fd5b505080516020909101519092909150565b634e487b7160e01b600052604160045260246000fd5b600181811c908216806200016f57607f821691505b6020821081036200019057634e487b7160e01b600052602260045260246000fd5b50919050565b601f821115620001e457600081815260208120601f850160051c81016020861015620001bf5750805b601f850160051c820191505b81811015620001e057828155600101620001cb565b5050505b505050565b81516001600160401b0381111562000205576200020562000144565b6200021d816200021684546200015a565b8462000196565b602080601f8311600181146200025557600084156200023c5750858301515b600019600386901b1c1916600185901b178555620001e0565b600085815260208120601f198616915b82811015620002865788860151825594840194600190910190840162000265565b5085821015620002a55787850151600019600388901b60f8161c191681555b5050505050600190811b01905550565b61398680620002c56000396000f3fe6080604052600436106102305760003560e01c80636352211e1161012e57806398bdf6f5116100ab578063c87b56dd1161006f578063c87b56dd146106a1578063cb917b9c146106c1578063de74e57b146106e1578063e985e9c51461075c578063f2fde38b146107a557600080fd5b806398bdf6f5146105f8578063a22cb4651461060f578063ad7a672f1461062f578063afb0a36914610644578063b88d4fde1461068157600080fd5b806370a08231116100f257806370a082311461057d578063715018a61461059d5780638da5cb5b146105b257806394383f14146105d057806395d89b41146105e357600080fd5b80636352211e146104f457806365d5a9d01461051457806367243482146105345780636a1b7ecc146105545780636f9fb98a1461056a57600080fd5b80632a55205a116101bc57806342842e0e1161018057806342842e0e146104545780634782d53c1461047457806348758697146104945780634ac0123d146104b45780634f6ccce7146104d457600080fd5b80632a55205a146103b75780632f745c59146103f65780633877248d1461041657806338e864f4146104295780633ccfd60b1461043f57600080fd5b8063150b7a0211610203578063150b7a02146102e6578063150bde031461032b5780631524afc91461033e57806318160ddd1461038257806323b872dd1461039757600080fd5b806301ffc9a71461023557806306fdde031461026a578063081812fc1461028c578063095ea7b3146102c4575b600080fd5b34801561024157600080fd5b50610255610250366004612e50565b6107c5565b60405190151581526020015b60405180910390f35b34801561027657600080fd5b5061027f6107d6565b6040516102619190612ebd565b34801561029857600080fd5b506102ac6102a7366004612ed0565b610868565b6040516001600160a01b039091168152602001610261565b3480156102d057600080fd5b506102e46102df366004612efe565b61088f565b005b3480156102f257600080fd5b50610312610301366004612f2a565b630a85bd0160e11b95945050505050565b6040516001600160e01b03199091168152602001610261565b6102e4610339366004612ed0565b6109a9565b34801561034a57600080fd5b50610374610359366004612ed0565b6000908152601260205260409020546001600160601b031690565b604051908152602001610261565b34801561038e57600080fd5b50600a54610374565b3480156103a357600080fd5b506102e46103b2366004612fc9565b610d02565b3480156103c357600080fd5b506103d76103d236600461300a565b610d33565b604080516001600160a01b039093168352602083019190915201610261565b34801561040257600080fd5b50610374610411366004612efe565b610de1565b6102e4610424366004613107565b610e77565b34801561043557600080fd5b5061037460105481565b34801561044b57600080fd5b506102e4610faa565b34801561046057600080fd5b506102e461046f366004612fc9565b611037565b34801561048057600080fd5b506102e461048f3660046131fd565b611052565b3480156104a057600080fd5b5061027f6104af366004612ed0565b611233565b3480156104c057600080fd5b506102e46104cf36600461300a565b6113d3565b3480156104e057600080fd5b506103746104ef366004612ed0565b61143f565b34801561050057600080fd5b506102ac61050f366004612ed0565b6114d2565b34801561052057600080fd5b506102e461052f36600461332a565b611532565b34801561054057600080fd5b506102e461054f36600461337f565b61163c565b34801561056057600080fd5b50610374600f5481565b34801561057657600080fd5b5047610374565b34801561058957600080fd5b506103746105983660046133eb565b6117fa565b3480156105a957600080fd5b506102e4611880565b3480156105be57600080fd5b50600d546001600160a01b03166102ac565b6102e46105de36600461300a565b611894565b3480156105ef57600080fd5b5061027f611b7a565b34801561060457600080fd5b50600e546103749081565b34801561061b57600080fd5b506102e461062a366004613416565b611b89565b34801561063b57600080fd5b50601354610374565b34801561065057600080fd5b5061067461065f366004612ed0565b60156020526000908152604090205460ff1681565b6040516102619190613487565b34801561068d57600080fd5b506102e461069c366004613495565b611b94565b3480156106ad57600080fd5b5061027f6106bc366004612ed0565b611bc6565b3480156106cd57600080fd5b506102e46106dc366004612ed0565b611bd1565b3480156106ed57600080fd5b506107306106fc366004612ed0565b60146020526000908152604090208054600182015460028301546003909301546001600160a01b0390921692909160ff1684565b604080516001600160a01b03909516855260208501939093529183015215156060820152608001610261565b34801561076857600080fd5b50610255610777366004613515565b6001600160a01b03918216600090815260076020908152604080832093909416825291909152205460ff1690565b3480156107b157600080fd5b506102e46107c03660046133eb565b611c9b565b60006107d082611d14565b92915050565b6060600280546107e590613543565b80601f016020809104026020016040519081016040528092919081815260200182805461081190613543565b801561085e5780601f106108335761010080835404028352916020019161085e565b820191906000526020600020905b81548152906001019060200180831161084157829003601f168201915b5050505050905090565b600061087382611d1f565b506000908152600660205260409020546001600160a01b031690565b600061089a826114d2565b9050806001600160a01b0316836001600160a01b03160361090c5760405162461bcd60e51b815260206004820152602160248201527f4552433732313a20617070726f76616c20746f2063757272656e74206f776e656044820152603960f91b60648201526084015b60405180910390fd5b336001600160a01b038216148061092857506109288133610777565b61099a5760405162461bcd60e51b815260206004820152603d60248201527f4552433732313a20617070726f76652063616c6c6572206973206e6f7420746f60448201527f6b656e206f776e6572206f7220617070726f76656420666f7220616c6c0000006064820152608401610903565b6109a48383611d7e565b505050565b600081815260146020908152604091829020825160808101845281546001600160a01b0316815260018201549281018390526002820154938101939093526003015460ff1615156060830152610a325760405162461bcd60e51b815260206004820152600e60248201526d139195081b9bdd081b1a5cdd195960921b6044820152606401610903565b8060200151341015610a865760405162461bcd60e51b815260206004820152601760248201527f496e73756666696369656e742066756e64732073656e740000000000000000006044820152606401610903565b60008281526011602052604090205460ff1615610b4557600082815260116020526040808220805460ff19169055825190516001600160a01b03909116913480156108fc02929091818181858888f19350505050158015610aeb573d6000803e3d6000fd5b508051604080516001600160a01b03909216825233602083015234908201526000606082015282907f5455e1f43c674b0e790485adf9e64c058a505bbff2e540eba3a4e612a3a85ec49060800160405180910390a2610c77565b34600080610b538584610d33565b9150915080341015610ba75760405162461bcd60e51b815260206004820181905260248201527f496e73756666696369656e74207061796d656e7420666f7220726f79616c74796044820152606401610903565b6040516001600160a01b0383169082156108fc029083906000818181858888f19350505050158015610bdd573d6000803e3d6000fd5b5083516001600160a01b03166108fc610bf68386613593565b6040518115909202916000818181858888f19350505050158015610c1e573d6000803e3d6000fd5b508351604080516001600160a01b03909216825233602083015234908201526060810182905285907f5455e1f43c674b0e790485adf9e64c058a505bbff2e540eba3a4e612a3a85ec49060800160405180910390a25050505b604051632142170760e11b8152306004820181905233602483015260448201849052906342842e0e90606401600060405180830381600087803b158015610cbd57600080fd5b505af1158015610cd1573d6000803e3d6000fd5b5050506000928352505060146020526040902060038101805460ff1916905580546001600160a01b03191633179055565b610d0c3382611dec565b610d285760405162461bcd60e51b8152600401610903906135a6565b6109a4838383611e6b565b60008281526001602090815260408083208151808301909252546001600160a01b038116808352600160a01b9091046001600160601b0316928201929092528291610da85750604080518082019091526000546001600160a01b0381168252600160a01b90046001600160601b031660208201525b602081015160009061271090610dc7906001600160601b0316876135f3565b610dd19190613620565b91519350909150505b9250929050565b6000610dec836117fa565b8210610e4e5760405162461bcd60e51b815260206004820152602b60248201527f455243373231456e756d657261626c653a206f776e657220696e646578206f7560448201526a74206f6620626f756e647360a81b6064820152608401610903565b506001600160a01b03919091166000908152600860209081526040808320938352929052205490565b601054341015610ec95760405162461bcd60e51b815260206004820152601a60248201527f496e73756666696369656e742075736572206d696e74206665650000000000006044820152606401610903565b610ed7600e80546001019055565b6000610ee2600e5490565b9050610eee8482611fdc565b610ef88184611ff6565b610f038185846120c1565b600081815260126020908152604080832080546bffffffffffffffffffffffff19166001600160601b03871617905560119091528120805460ff191660011790556013805491610f5283613634565b91905055506000610f62826121cf565b90507f479f025f7efdb927780d7703773f09c42f890c6705bff4e36c0d1137c76f501e8286868685604051610f9b95949392919061364d565b60405180910390a15050505050565b610fb2612317565b4780610ff95760405162461bcd60e51b81526020600482015260166024820152754e6f2062616c616e636520746f20776974686472617760501b6044820152606401610903565b600d546040516001600160a01b039091169082156108fc029083906000818181858888f19350505050158015611033573d6000803e3d6000fd5b5050565b6109a483838360405180602001604052806000815250611b94565b61105a612317565b80518251146110ab5760405162461bcd60e51b815260206004820181905260248201527f4d69736d617463686564207572697320616e6420726f79616c747952617465736044820152606401610903565b60005b8251811015611215576110c5600e80546001019055565b60006110d0600e5490565b90506110dc8582611fdc565b6110ff818584815181106110f2576110f261369f565b6020026020010151611ff6565b61112381868585815181106111165761111661369f565b60200260200101516120c1565b8282815181106111355761113561369f565b602090810291909101810151600083815260128352604080822080546bffffffffffffffffffffffff19166001600160601b039094169390931790925560119092528120805460ff1916600117905561118d826121cf565b90507f479f025f7efdb927780d7703773f09c42f890c6705bff4e36c0d1137c76f501e82878786815181106111c4576111c461369f565b60200260200101518787815181106111de576111de61369f565b6020026020010151856040516111f895949392919061364d565b60405180910390a15050808061120d90613634565b9150506110ae565b5081516013600082825461122991906136b5565b9091555050505050565b60008181526015602052604081205460609160ff9091169081600581111561125d5761125d61344f565b03611285575050604080518082019091526005815264776869746560d81b6020820152919050565b60018160058111156112995761129961344f565b036112c157505060408051808201909152600581526433b932b2b760d91b6020820152919050565b60028160058111156112d5576112d561344f565b036112fc575050604080518082019091526004815263626c756560e01b6020820152919050565b60038160058111156113105761131061344f565b03611339575050604080518082019091526006815265707572706c6560d01b6020820152919050565b600481600581111561134d5761134d61344f565b0361137457505060408051808201909152600481526319dbdb1960e21b6020820152919050565b60058160058111156113885761138861344f565b036113ae5750506040805180820190915260038152621c995960ea1b6020820152919050565b50506040805180820190915260078152662ab735b737bbb760c91b6020820152919050565b6000828152601460205260409020546001600160a01b0316331461142a5760405162461bcd60e51b815260206004820152600e60248201526d139bdd08185d5d1a1bdc9a5e995960921b6044820152606401610903565b60009182526014602052604090912060010155565b600061144a600a5490565b82106114ad5760405162461bcd60e51b815260206004820152602c60248201527f455243373231456e756d657261626c653a20676c6f62616c20696e646578206f60448201526b7574206f6620626f756e647360a01b6064820152608401610903565b600a82815481106114c0576114c061369f565b90600052602060002001549050919050565b6000818152600460205260408120546001600160a01b0316806107d05760405162461bcd60e51b8152602060048201526018602482015277115490cdcc8c4e881a5b9d985b1a59081d1bdad95b88125160421b6044820152606401610903565b6001600160a01b0383166115885760405162461bcd60e51b815260206004820152601e60248201527f43616e6e6f7420617070726f766520746f207a65726f206164647265737300006044820152606401610903565b60005b818110156116365760008383838181106115a7576115a761369f565b905060200201359050336001600160a01b03166115c3826114d2565b6001600160a01b0316146116195760405162461bcd60e51b815260206004820152601960248201527f43616c6c6572206973206e6f7420746f6b656e206f776e6572000000000000006044820152606401610903565b611623858261088f565b508061162e81613634565b91505061158b565b50505050565b611644612317565b8281146116875760405162461bcd60e51b81526020600482015260116024820152704d69736d61746368656420696e7075747360781b6044820152606401610903565b60005b838110156117f35760008383838181106116a6576116a661369f565b90506020020135905060008686848181106116c3576116c361369f565b90506020020160208101906116d891906133eb565b90506116ec600d546001600160a01b031690565b6001600160a01b03166116fe836114d2565b6001600160a01b0316146117545760405162461bcd60e51b815260206004820152601860248201527f41646d696e206d757374206f776e2074686520746f6b656e00000000000000006044820152606401610903565b611770611769600d546001600160a01b031690565b8284611e6b565b60008281526014602090815260409182902060038101805460ff1916905580546001600160a01b0319166001600160a01b0385169081179091558251858152918201527f7871e154ac114554d9482c2356ea08c8934e9907ad45c33ca7c3677f2b157383910160405180910390a1505080806117eb90613634565b91505061168a565b5050505050565b60006001600160a01b0382166118645760405162461bcd60e51b815260206004820152602960248201527f4552433732313a2061646472657373207a65726f206973206e6f7420612076616044820152683634b21037bbb732b960b91b6064820152608401610903565b506001600160a01b031660009081526005602052604090205490565b611888612317565b6118926000612371565b565b600f543410156118e65760405162461bcd60e51b815260206004820152601860248201527f496e73756666696369656e74206c697374696e672066656500000000000000006044820152606401610903565b60405163020604bf60e21b8152600481018390523090819063081812fc90602401602060405180830381865afa158015611924573d6000803e3d6000fd5b505050506040513d601f19601f8201168201806040525081019061194891906136c8565b6001600160a01b031614806119be575060405163e985e9c560e01b815233600482015230602482018190529063e985e9c590604401602060405180830381865afa15801561199a573d6000803e3d6000fd5b505050506040513d601f19601f820116820180604052508101906119be91906136e5565b611a0a5760405162461bcd60e51b815260206004820152601860248201527f4d61726b6574706c616365206e6f7420617070726f76656400000000000000006044820152606401610903565b604051632142170760e11b8152336004820152306024820181905260448201849052906342842e0e90606401600060405180830381600087803b158015611a5057600080fd5b505af1158015611a64573d6000803e3d6000fd5b5050506000838152601460205260409020546001600160a01b0316159050611ac757600082815260146020526040902080546001600160a01b0319163317815560018082018390553460028301556003909101805460ff19169091179055611b3c565b604080516080810182523381526020808201848152348385019081526001606085018181526000898152601490955295909320935184546001600160a01b0319166001600160a01b0390911617845590519183019190915551600282015590516003909101805460ff19169115159190911790555b6040805182815233602082015283917fb4e5606a376800f822ae7ce93010dddb4ebd38ca6db1bdbc2d0a1de90c9079e4910160405180910390a25050565b6060600380546107e590613543565b6110333383836123c3565b611b9e3383611dec565b611bba5760405162461bcd60e51b8152600401610903906135a6565b61163684848484612491565b60606107d0826124c4565b6000818152601460205260409020546001600160a01b03163314611c285760405162461bcd60e51b815260206004820152600e60248201526d139bdd08185d5d1a1bdc9a5e995960921b6044820152606401610903565b60008181526014602052604090819020600301805460ff1916905551632142170760e11b8152306004820181905233602483015260448201839052906342842e0e90606401600060405180830381600087803b158015611c8757600080fd5b505af11580156117f3573d6000803e3d6000fd5b611ca3612317565b6001600160a01b038116611d085760405162461bcd60e51b815260206004820152602660248201527f4f776e61626c653a206e6577206f776e657220697320746865207a65726f206160448201526564647265737360d01b6064820152608401610903565b611d1181612371565b50565b60006107d0826125e9565b6000818152600460205260409020546001600160a01b0316611d115760405162461bcd60e51b8152602060048201526018602482015277115490cdcc8c4e881a5b9d985b1a59081d1bdad95b88125160421b6044820152606401610903565b600081815260066020526040902080546001600160a01b0319166001600160a01b0384169081179091558190611db3826114d2565b6001600160a01b03167f8c5be1e5ebec7d5bd14f71427d1e84f3dd0314c0f7b2291e5b200ac8c7c3b92560405160405180910390a45050565b600080611df8836114d2565b9050806001600160a01b0316846001600160a01b03161480611e3f57506001600160a01b0380821660009081526007602090815260408083209388168352929052205460ff165b80611e635750836001600160a01b0316611e5884610868565b6001600160a01b0316145b949350505050565b826001600160a01b0316611e7e826114d2565b6001600160a01b031614611ea45760405162461bcd60e51b815260040161090390613702565b6001600160a01b038216611f065760405162461bcd60e51b8152602060048201526024808201527f4552433732313a207472616e7366657220746f20746865207a65726f206164646044820152637265737360e01b6064820152608401610903565b611f13838383600161260e565b826001600160a01b0316611f26826114d2565b6001600160a01b031614611f4c5760405162461bcd60e51b815260040161090390613702565b600081815260066020908152604080832080546001600160a01b03199081169091556001600160a01b0387811680865260058552838620805460001901905590871680865283862080546001019055868652600490945282852080549092168417909155905184937fddf252ad1be2c89b69c2b068fc378daa952ba7f163c4a11628f55a4df523b3ef91a4505050565b61103382826040518060200160405280600081525061261a565b6000828152600460205260409020546001600160a01b03166120715760405162461bcd60e51b815260206004820152602e60248201527f45524337323155524953746f726167653a2055524920736574206f66206e6f6e60448201526d32bc34b9ba32b73a103a37b5b2b760911b6064820152608401610903565b6000828152600c602052604090206120898282613795565b506040518281527ff8e1a15aba9398e019f0b49df1a4fde98ee17ae345cb5f6b5e2c27f5033e8ce79060200160405180910390a15050565b6127106001600160601b038216111561212f5760405162461bcd60e51b815260206004820152602a60248201527f455243323938313a20726f79616c7479206665652077696c6c206578636565646044820152692073616c65507269636560b01b6064820152608401610903565b6001600160a01b0382166121855760405162461bcd60e51b815260206004820152601b60248201527f455243323938313a20496e76616c696420706172616d657465727300000000006044820152606401610903565b6040805180820182526001600160a01b0393841681526001600160601b0392831660208083019182526000968752600190529190942093519051909116600160a01b029116179055565b6040805142602082015244918101919091526060810182905260009081906064906080016040516020818303038152906040528051906020012060001c6122169190613855565b90506023811015612243576000838152601560205260408120805460ff19166001835b0217905550612300565b603c81101561226b57600083815260156020526040902080546001919060ff19168280612239565b605081101561229457600083815260156020526040902080546002919060ff1916600183612239565b605a8110156122bd57600083815260156020526040902080546003919060ff1916600183612239565b60618110156122e657600083815260156020526040902080546004919060ff1916600183612239565b6000838152601560205260409020805460ff191660051790555b505060009081526015602052604090205460ff1690565b600d546001600160a01b031633146118925760405162461bcd60e51b815260206004820181905260248201527f4f776e61626c653a2063616c6c6572206973206e6f7420746865206f776e65726044820152606401610903565b600d80546001600160a01b038381166001600160a01b0319831681179093556040519116919082907f8be0079c531659141344cd1fd0a4f28419497f9722a3daafe3b4186f6b6457e090600090a35050565b816001600160a01b0316836001600160a01b0316036124245760405162461bcd60e51b815260206004820152601960248201527f4552433732313a20617070726f766520746f2063616c6c6572000000000000006044820152606401610903565b6001600160a01b03838116600081815260076020908152604080832094871680845294825291829020805460ff191686151590811790915591519182527f17307eab39ab6107e8899845ad3d59bd9653f200f220920489ca2b5937696c31910160405180910390a3505050565b61249c848484611e6b565b6124a88484848461264d565b6116365760405162461bcd60e51b815260040161090390613869565b60606124cf82611d1f565b6000828152600c6020526040812080546124e890613543565b80601f016020809104026020016040519081016040528092919081815260200182805461251490613543565b80156125615780601f1061253657610100808354040283529160200191612561565b820191906000526020600020905b81548152906001019060200180831161254457829003601f168201915b50505050509050600061259c60408051808201909152601581527468747470733a2f2f697066732e696f2f697066732f60581b602082015290565b905080516000036125ae575092915050565b8151156125e05780826040516020016125c89291906138bb565b60405160208183030381529060405292505050919050565b611e638461274e565b60006001600160e01b03198216632483248360e11b14806107d057506107d0826127df565b61163684848484612804565b6126248383612931565b612631600084848461264d565b6109a45760405162461bcd60e51b815260040161090390613869565b60006001600160a01b0384163b1561274357604051630a85bd0160e11b81526001600160a01b0385169063150b7a02906126919033908990889088906004016138ea565b6020604051808303816000875af19250505080156126cc575060408051601f3d908101601f191682019092526126c99181019061391d565b60015b612729573d8080156126fa576040519150601f19603f3d011682016040523d82523d6000602084013e6126ff565b606091505b5080516000036127215760405162461bcd60e51b815260040161090390613869565b805181602001fd5b6001600160e01b031916630a85bd0160e11b149050611e63565b506001949350505050565b606061275982611d1f565b600061278d60408051808201909152601581527468747470733a2f2f697066732e696f2f697066732f60581b602082015290565b905060008151116127ad57604051806020016040528060008152506127d8565b806127b784612aca565b6040516020016127c89291906138bb565b6040516020818303038152906040525b9392505050565b60006001600160e01b0319821663780e9d6360e01b14806107d057506107d082612b5d565b60018111156128735760405162461bcd60e51b815260206004820152603560248201527f455243373231456e756d657261626c653a20636f6e7365637574697665207472604482015274185b9cd9995c9cc81b9bdd081cdd5c1c1bdc9d1959605a1b6064820152608401610903565b816001600160a01b0385166128cf576128ca81600a80546000838152600b60205260408120829055600182018355919091527fc65a7bb8d6351c1cf70c95a316cc6a92839c986682d98bc35f958f4883f9d2a80155565b6128f2565b836001600160a01b0316856001600160a01b0316146128f2576128f28582612b9d565b6001600160a01b03841661290e5761290981612c3a565b6117f3565b846001600160a01b0316846001600160a01b0316146117f3576117f38482612ce9565b6001600160a01b0382166129875760405162461bcd60e51b815260206004820181905260248201527f4552433732313a206d696e7420746f20746865207a65726f20616464726573736044820152606401610903565b6000818152600460205260409020546001600160a01b0316156129ec5760405162461bcd60e51b815260206004820152601c60248201527f4552433732313a20746f6b656e20616c7265616479206d696e746564000000006044820152606401610903565b6129fa60008383600161260e565b6000818152600460205260409020546001600160a01b031615612a5f5760405162461bcd60e51b815260206004820152601c60248201527f4552433732313a20746f6b656e20616c7265616479206d696e746564000000006044820152606401610903565b6001600160a01b038216600081815260056020908152604080832080546001019055848352600490915280822080546001600160a01b0319168417905551839291907fddf252ad1be2c89b69c2b068fc378daa952ba7f163c4a11628f55a4df523b3ef908290a45050565b60606000612ad783612d2d565b600101905060008167ffffffffffffffff811115612af757612af761302c565b6040519080825280601f01601f191660200182016040528015612b21576020820181803683370190505b5090508181016020015b600019016f181899199a1a9b1b9c1cb0b131b232b360811b600a86061a8153600a8504945084612b2b57509392505050565b60006001600160e01b031982166380ac58cd60e01b1480612b8e57506001600160e01b03198216635b5e139f60e01b145b806107d057506107d082612e05565b60006001612baa846117fa565b612bb49190613593565b600083815260096020526040902054909150808214612c07576001600160a01b03841660009081526008602090815260408083208584528252808320548484528184208190558352600990915290208190555b5060009182526009602090815260408084208490556001600160a01b039094168352600881528383209183525290812055565b600a54600090612c4c90600190613593565b6000838152600b6020526040812054600a8054939450909284908110612c7457612c7461369f565b9060005260206000200154905080600a8381548110612c9557612c9561369f565b6000918252602080832090910192909255828152600b9091526040808220849055858252812055600a805480612ccd57612ccd61393a565b6001900381819060005260206000200160009055905550505050565b6000612cf4836117fa565b6001600160a01b039093166000908152600860209081526040808320868452825280832085905593825260099052919091209190915550565b60008072184f03e93ff9f4daa797ed6e38ed64bf6a1f0160401b8310612d6c5772184f03e93ff9f4daa797ed6e38ed64bf6a1f0160401b830492506040015b6d04ee2d6d415b85acef81000000008310612d98576d04ee2d6d415b85acef8100000000830492506020015b662386f26fc100008310612db657662386f26fc10000830492506010015b6305f5e1008310612dce576305f5e100830492506008015b6127108310612de257612710830492506004015b60648310612df4576064830492506002015b600a83106107d05760010192915050565b60006001600160e01b0319821663152a902d60e11b14806107d057506301ffc9a760e01b6001600160e01b03198316146107d0565b6001600160e01b031981168114611d1157600080fd5b600060208284031215612e6257600080fd5b81356127d881612e3a565b60005b83811015612e88578181015183820152602001612e70565b50506000910152565b60008151808452612ea9816020860160208601612e6d565b601f01601f19169290920160200192915050565b6020815260006127d86020830184612e91565b600060208284031215612ee257600080fd5b5035919050565b6001600160a01b0381168114611d1157600080fd5b60008060408385031215612f1157600080fd5b8235612f1c81612ee9565b946020939093013593505050565b600080600080600060808688031215612f4257600080fd5b8535612f4d81612ee9565b94506020860135612f5d81612ee9565b935060408601359250606086013567ffffffffffffffff80821115612f8157600080fd5b818801915088601f830112612f9557600080fd5b813581811115612fa457600080fd5b896020828501011115612fb657600080fd5b9699959850939650602001949392505050565b600080600060608486031215612fde57600080fd5b8335612fe981612ee9565b92506020840135612ff981612ee9565b929592945050506040919091013590565b6000806040838503121561301d57600080fd5b50508035926020909101359150565b634e487b7160e01b600052604160045260246000fd5b604051601f8201601f1916810167ffffffffffffffff8111828210171561306b5761306b61302c565b604052919050565b600067ffffffffffffffff83111561308d5761308d61302c565b6130a0601f8401601f1916602001613042565b90508281528383830111156130b457600080fd5b828260208301376000602084830101529392505050565b600082601f8301126130dc57600080fd5b6127d883833560208501613073565b80356001600160601b038116811461310257600080fd5b919050565b60008060006060848603121561311c57600080fd5b833561312781612ee9565b9250602084013567ffffffffffffffff81111561314357600080fd5b61314f868287016130cb565b92505061315e604085016130eb565b90509250925092565b600067ffffffffffffffff8211156131815761318161302c565b5060051b60200190565b600082601f83011261319c57600080fd5b813560206131b16131ac83613167565b613042565b82815260059290921b840181019181810190868411156131d057600080fd5b8286015b848110156131f2576131e5816130eb565b83529183019183016131d4565b509695505050505050565b60008060006060848603121561321257600080fd5b833561321d81612ee9565b925060208481013567ffffffffffffffff8082111561323b57600080fd5b818701915087601f83011261324f57600080fd5b813561325d6131ac82613167565b81815260059190911b8301840190848101908a83111561327c57600080fd5b8585015b838110156132b4578035858111156132985760008081fd5b6132a68d89838a01016130cb565b845250918601918601613280565b509650505060408701359250808311156132cd57600080fd5b50506132db8682870161318b565b9150509250925092565b60008083601f8401126132f757600080fd5b50813567ffffffffffffffff81111561330f57600080fd5b6020830191508360208260051b8501011115610dda57600080fd5b60008060006040848603121561333f57600080fd5b833561334a81612ee9565b9250602084013567ffffffffffffffff81111561336657600080fd5b613372868287016132e5565b9497909650939450505050565b6000806000806040858703121561339557600080fd5b843567ffffffffffffffff808211156133ad57600080fd5b6133b9888389016132e5565b909650945060208701359150808211156133d257600080fd5b506133df878288016132e5565b95989497509550505050565b6000602082840312156133fd57600080fd5b81356127d881612ee9565b8015158114611d1157600080fd5b6000806040838503121561342957600080fd5b823561343481612ee9565b9150602083013561344481613408565b809150509250929050565b634e487b7160e01b600052602160045260246000fd5b6006811061348357634e487b7160e01b600052602160045260246000fd5b9052565b602081016107d08284613465565b600080600080608085870312156134ab57600080fd5b84356134b681612ee9565b935060208501356134c681612ee9565b925060408501359150606085013567ffffffffffffffff8111156134e957600080fd5b8501601f810187136134fa57600080fd5b61350987823560208401613073565b91505092959194509250565b6000806040838503121561352857600080fd5b823561353381612ee9565b9150602083013561344481612ee9565b600181811c9082168061355757607f821691505b60208210810361357757634e487b7160e01b600052602260045260246000fd5b50919050565b634e487b7160e01b600052601160045260246000fd5b818103818111156107d0576107d061357d565b6020808252602d908201527f4552433732313a2063616c6c6572206973206e6f7420746f6b656e206f776e6560408201526c1c881bdc88185c1c1c9bdd9959609a1b606082015260800190565b80820281158282048414176107d0576107d061357d565b634e487b7160e01b600052601260045260246000fd5b60008261362f5761362f61360a565b500490565b6000600182016136465761364661357d565b5060010190565b8581526001600160a01b038516602082015260a06040820181905260009061367790830186612e91565b90506001600160601b03841660608301526136956080830184613465565b9695505050505050565b634e487b7160e01b600052603260045260246000fd5b808201808211156107d0576107d061357d565b6000602082840312156136da57600080fd5b81516127d881612ee9565b6000602082840312156136f757600080fd5b81516127d881613408565b60208082526025908201527f4552433732313a207472616e736665722066726f6d20696e636f72726563742060408201526437bbb732b960d91b606082015260800190565b601f8211156109a457600081815260208120601f850160051c8101602086101561376e5750805b601f850160051c820191505b8181101561378d5782815560010161377a565b505050505050565b815167ffffffffffffffff8111156137af576137af61302c565b6137c3816137bd8454613543565b84613747565b602080601f8311600181146137f857600084156137e05750858301515b600019600386901b1c1916600185901b17855561378d565b600085815260208120601f198616915b8281101561382757888601518255948401946001909101908401613808565b50858210156138455787850151600019600388901b60f8161c191681555b5050505050600190811b01905550565b6000826138645761386461360a565b500690565b60208082526032908201527f4552433732313a207472616e7366657220746f206e6f6e20455243373231526560408201527131b2b4bb32b91034b6b83632b6b2b73a32b960711b606082015260800190565b600083516138cd818460208801612e6d565b8351908301906138e1818360208801612e6d565b01949350505050565b6001600160a01b038581168252841660208201526040810183905260806060820181905260009061369590830184612e91565b60006020828403121561392f57600080fd5b81516127d881612e3a565b634e487b7160e01b600052603160045260246000fdfea26469706673582212204661a52cfa330fe05d3df27c633a98097bbff3c9f3d471b6ee9802be86ec020a64736f6c63430008140033",
  "devdoc": {
    "events": {
      "Approval(address,address,uint256)": {
        "details": "Emitted when `owner` enables `approved` to manage the `tokenId` token."
      },
      "ApprovalForAll(address,address,bool)": {
        "details": "Emitted when `owner` enables or disables (`approved`) `operator` to manage all of its assets."
      },
      "BatchMetadataUpdate(uint256,uint256)": {
        "details": "This event emits when the metadata of a range of tokens is changed. So that the third-party platforms such as NFT market could timely update the images and related attributes of the NFTs."
      },
      "MetadataUpdate(uint256)": {
        "details": "This event emits when the metadata of a token is changed. So that the third-party platforms such as NFT market could timely update the images and related attributes of the NFT."
      },
      "Transfer(address,address,uint256)": {
        "details": "Emitted when `tokenId` token is transferred from `from` to `to`."
      }
    },
    "kind": "dev",
    "methods": {
      "approve(address,uint256)": {
        "details": "See {IERC721-approve}."
      },
      "balanceOf(address)": {
        "details": "See {IERC721-balanceOf}."
      },
      "getApproved(uint256)": {
        "details": "See {IERC721-getApproved}."
      },
      "isApprovedForAll(address,address)": {
        "details": "See {IERC721-isApprovedForAll}."
      },
      "name()": {
        "details": "See {IERC721Metadata-name}."
      },
      "owner()": {
        "details": "Returns the address of the current owner."
      },
      "ownerOf(uint256)": {
        "details": "See {IERC721-ownerOf}."
      },
      "renounceOwnership()": {
        "details": "Leaves the contract without owner. It will not be possible to call `onlyOwner` functions. Can only be called by the current owner. NOTE: Renouncing ownership will leave the contract without an owner, thereby disabling any functionality that is only available to the owner."
      },
      "royaltyInfo(uint256,uint256)": {
        "details": "Returns how much royalty is owed and to whom, based on a sale price that may be denominated in any unit of exchange. The royalty amount is denominated and should be paid in that same unit of exchange."
      },
      "safeTransferFrom(address,address,uint256)": {
        "details": "See {IERC721-safeTransferFrom}."
      },
      "safeTransferFrom(address,address,uint256,bytes)": {
        "details": "See {IERC721-safeTransferFrom}."
      },
      "setApprovalForAll(address,bool)": {
        "details": "See {IERC721-setApprovalForAll}."
      },
      "symbol()": {
        "details": "See {IERC721Metadata-symbol}."
      },
      "tokenByIndex(uint256)": {
        "details": "See {IERC721Enumerable-tokenByIndex}."
      },
      "tokenOfOwnerByIndex(address,uint256)": {
        "details": "See {IERC721Enumerable-tokenOfOwnerByIndex}."
      },
      "totalSupply()": {
        "details": "See {IERC721Enumerable-totalSupply}."
      },
      "transferFrom(address,address,uint256)": {
        "details": "See {IERC721-transferFrom}."
      },
      "transferOwnership(address)": {
        "details": "Transfers ownership of the contract to a new account (`newOwner`). Can only be called by the current owner."
      }
    },
    "version": 1
  },
  "userdoc": {
    "kind": "user",
    "methods": {},
    "version": 1
  },
  "storageLayout": {
    "storage": [
      {
        "astId": 1919,
        "contract": "contracts/YourCollectible.sol:YourCollectible",
        "label": "_defaultRoyaltyInfo",
        "offset": 0,
        "slot": "0",
        "type": "t_struct(RoyaltyInfo)1916_storage"
      },
      {
        "astId": 1924,
        "contract": "contracts/YourCollectible.sol:YourCollectible",
        "label": "_tokenRoyaltyInfo",
        "offset": 0,
        "slot": "1",
        "type": "t_mapping(t_uint256,t_struct(RoyaltyInfo)1916_storage)"
      },
      {
        "astId": 253,
        "contract": "contracts/YourCollectible.sol:YourCollectible",
        "label": "_name",
        "offset": 0,
        "slot": "2",
        "type": "t_string_storage"
      },
      {
        "astId": 255,
        "contract": "contracts/YourCollectible.sol:YourCollectible",
        "label": "_symbol",
        "offset": 0,
        "slot": "3",
        "type": "t_string_storage"
      },
      {
        "astId": 259,
        "contract": "contracts/YourCollectible.sol:YourCollectible",
        "label": "_owners",
        "offset": 0,
        "slot": "4",
        "type": "t_mapping(t_uint256,t_address)"
      },
      {
        "astId": 263,
        "contract": "contracts/YourCollectible.sol:YourCollectible",
        "label": "_balances",
        "offset": 0,
        "slot": "5",
        "type": "t_mapping(t_address,t_uint256)"
      },
      {
        "astId": 267,
        "contract": "contracts/YourCollectible.sol:YourCollectible",
        "label": "_tokenApprovals",
        "offset": 0,
        "slot": "6",
        "type": "t_mapping(t_uint256,t_address)"
      },
      {
        "astId": 273,
        "contract": "contracts/YourCollectible.sol:YourCollectible",
        "label": "_operatorApprovals",
        "offset": 0,
        "slot": "7",
        "type": "t_mapping(t_address,t_mapping(t_address,t_bool))"
      },
      {
        "astId": 1303,
        "contract": "contracts/YourCollectible.sol:YourCollectible",
        "label": "_ownedTokens",
        "offset": 0,
        "slot": "8",
        "type": "t_mapping(t_address,t_mapping(t_uint256,t_uint256))"
      },
      {
        "astId": 1307,
        "contract": "contracts/YourCollectible.sol:YourCollectible",
        "label": "_ownedTokensIndex",
        "offset": 0,
        "slot": "9",
        "type": "t_mapping(t_uint256,t_uint256)"
      },
      {
        "astId": 1310,
        "contract": "contracts/YourCollectible.sol:YourCollectible",
        "label": "_allTokens",
        "offset": 0,
        "slot": "10",
        "type": "t_array(t_uint256)dyn_storage"
      },
      {
        "astId": 1314,
        "contract": "contracts/YourCollectible.sol:YourCollectible",
        "label": "_allTokensIndex",
        "offset": 0,
        "slot": "11",
        "type": "t_mapping(t_uint256,t_uint256)"
      },
      {
        "astId": 1704,
        "contract": "contracts/YourCollectible.sol:YourCollectible",
        "label": "_tokenURIs",
        "offset": 0,
        "slot": "12",
        "type": "t_mapping(t_uint256,t_string_storage)"
      },
      {
        "astId": 75,
        "contract": "contracts/YourCollectible.sol:YourCollectible",
        "label": "_owner",
        "offset": 0,
        "slot": "13",
        "type": "t_address"
      },
      {
        "astId": 4266,
        "contract": "contracts/YourCollectible.sol:YourCollectible",
        "label": "tokenIdCounter",
        "offset": 0,
        "slot": "14",
        "type": "t_struct(Counter)2466_storage"
      },
      {
        "astId": 4268,
        "contract": "contracts/YourCollectible.sol:YourCollectible",
        "label": "listingFee",
        "offset": 0,
        "slot": "15",
        "type": "t_uint256"
      },
      {
        "astId": 4270,
        "contract": "contracts/YourCollectible.sol:YourCollectible",
        "label": "userMintFee",
        "offset": 0,
        "slot": "16",
        "type": "t_uint256"
      },
      {
        "astId": 4274,
        "contract": "contracts/YourCollectible.sol:YourCollectible",
        "label": "_firstPurchase",
        "offset": 0,
        "slot": "17",
        "type": "t_mapping(t_uint256,t_bool)"
      },
      {
        "astId": 4278,
        "contract": "contracts/YourCollectible.sol:YourCollectible",
        "label": "_royaltyRate",
        "offset": 0,
        "slot": "18",
        "type": "t_mapping(t_uint256,t_uint96)"
      },
      {
        "astId": 4290,
        "contract": "contracts/YourCollectible.sol:YourCollectible",
        "label": "balance",
        "offset": 0,
        "slot": "19",
        "type": "t_uint256"
      },
      {
        "astId": 4295,
        "contract": "contracts/YourCollectible.sol:YourCollectible",
        "label": "listings",
        "offset": 0,
        "slot": "20",
        "type": "t_mapping(t_uint256,t_struct(Listing)4287_storage)"
      },
      {
        "astId": 4307,
        "contract": "contracts/YourCollectible.sol:YourCollectible",
        "label": "tokenRarity",
        "offset": 0,
        "slot": "21",
        "type": "t_mapping(t_uint256,t_enum(Rarity)4302)"
      }
    ],
    "types": {
      "t_address": {
        "encoding": "inplace",
        "label": "address",
        "numberOfBytes": "20"
      },
      "t_array(t_uint256)dyn_storage": {
        "base": "t_uint256",
        "encoding": "dynamic_array",
        "label": "uint256[]",
        "numberOfBytes": "32"
      },
      "t_bool": {
        "encoding": "inplace",
        "label": "bool",
        "numberOfBytes": "1"
      },
      "t_enum(Rarity)4302": {
        "encoding": "inplace",
        "label": "enum YourCollectible.Rarity",
        "numberOfBytes": "1"
      },
      "t_mapping(t_address,t_bool)": {
        "encoding": "mapping",
        "key": "t_address",
        "label": "mapping(address => bool)",
        "numberOfBytes": "32",
        "value": "t_bool"
      },
      "t_mapping(t_address,t_mapping(t_address,t_bool))": {
        "encoding": "mapping",
        "key": "t_address",
        "label": "mapping(address => mapping(address => bool))",
        "numberOfBytes": "32",
        "value": "t_mapping(t_address,t_bool)"
      },
      "t_mapping(t_address,t_mapping(t_uint256,t_uint256))": {
        "encoding": "mapping",
        "key": "t_address",
        "label": "mapping(address => mapping(uint256 => uint256))",
        "numberOfBytes": "32",
        "value": "t_mapping(t_uint256,t_uint256)"
      },
      "t_mapping(t_address,t_uint256)": {
        "encoding": "mapping",
        "key": "t_address",
        "label": "mapping(address => uint256)",
        "numberOfBytes": "32",
        "value": "t_uint256"
      },
      "t_mapping(t_uint256,t_address)": {
        "encoding": "mapping",
        "key": "t_uint256",
        "label": "mapping(uint256 => address)",
        "numberOfBytes": "32",
        "value": "t_address"
      },
      "t_mapping(t_uint256,t_bool)": {
        "encoding": "mapping",
        "key": "t_uint256",
        "label": "mapping(uint256 => bool)",
        "numberOfBytes": "32",
        "value": "t_bool"
      },
      "t_mapping(t_uint256,t_enum(Rarity)4302)": {
        "encoding": "mapping",
        "key": "t_uint256",
        "label": "mapping(uint256 => enum YourCollectible.Rarity)",
        "numberOfBytes": "32",
        "value": "t_enum(Rarity)4302"
      },
      "t_mapping(t_uint256,t_string_storage)": {
        "encoding": "mapping",
        "key": "t_uint256",
        "label": "mapping(uint256 => string)",
        "numberOfBytes": "32",
        "value": "t_string_storage"
      },
      "t_mapping(t_uint256,t_struct(Listing)4287_storage)": {
        "encoding": "mapping",
        "key": "t_uint256",
        "label": "mapping(uint256 => struct YourCollectible.Listing)",
        "numberOfBytes": "32",
        "value": "t_struct(Listing)4287_storage"
      },
      "t_mapping(t_uint256,t_struct(RoyaltyInfo)1916_storage)": {
        "encoding": "mapping",
        "key": "t_uint256",
        "label": "mapping(uint256 => struct ERC2981.RoyaltyInfo)",
        "numberOfBytes": "32",
        "value": "t_struct(RoyaltyInfo)1916_storage"
      },
      "t_mapping(t_uint256,t_uint256)": {
        "encoding": "mapping",
        "key": "t_uint256",
        "label": "mapping(uint256 => uint256)",
        "numberOfBytes": "32",
        "value": "t_uint256"
      },
      "t_mapping(t_uint256,t_uint96)": {
        "encoding": "mapping",
        "key": "t_uint256",
        "label": "mapping(uint256 => uint96)",
        "numberOfBytes": "32",
        "value": "t_uint96"
      },
      "t_string_storage": {
        "encoding": "bytes",
        "label": "string",
        "numberOfBytes": "32"
      },
      "t_struct(Counter)2466_storage": {
        "encoding": "inplace",
        "label": "struct Counters.Counter",
        "members": [
          {
            "astId": 2465,
            "contract": "contracts/YourCollectible.sol:YourCollectible",
            "label": "_value",
            "offset": 0,
            "slot": "0",
            "type": "t_uint256"
          }
        ],
        "numberOfBytes": "32"
      },
      "t_struct(Listing)4287_storage": {
        "encoding": "inplace",
        "label": "struct YourCollectible.Listing",
        "members": [
          {
            "astId": 4280,
            "contract": "contracts/YourCollectible.sol:YourCollectible",
            "label": "seller",
            "offset": 0,
            "slot": "0",
            "type": "t_address"
          },
          {
            "astId": 4282,
            "contract": "contracts/YourCollectible.sol:YourCollectible",
            "label": "price",
            "offset": 0,
            "slot": "1",
            "type": "t_uint256"
          },
          {
            "astId": 4284,
            "contract": "contracts/YourCollectible.sol:YourCollectible",
            "label": "listingFee",
            "offset": 0,
            "slot": "2",
            "type": "t_uint256"
          },
          {
            "astId": 4286,
            "contract": "contracts/YourCollectible.sol:YourCollectible",
            "label": "isList",
            "offset": 0,
            "slot": "3",
            "type": "t_bool"
          }
        ],
        "numberOfBytes": "128"
      },
      "t_struct(RoyaltyInfo)1916_storage": {
        "encoding": "inplace",
        "label": "struct ERC2981.RoyaltyInfo",
        "members": [
          {
            "astId": 1913,
            "contract": "contracts/YourCollectible.sol:YourCollectible",
            "label": "receiver",
            "offset": 0,
            "slot": "0",
            "type": "t_address"
          },
          {
            "astId": 1915,
            "contract": "contracts/YourCollectible.sol:YourCollectible",
            "label": "royaltyFraction",
            "offset": 20,
            "slot": "0",
            "type": "t_uint96"
          }
        ],
        "numberOfBytes": "32"
      },
      "t_uint256": {
        "encoding": "inplace",
        "label": "uint256",
        "numberOfBytes": "32"
      },
      "t_uint96": {
        "encoding": "inplace",
        "label": "uint96",
        "numberOfBytes": "12"
      }
    }
  }
}