{
  "address": "0x096b75483D274c952855Deb9668d95A3dc74c3a5",
  "abi": [
    {
      "inputs": [
        {
          "internalType": "address",
          "name": "_nftContract",
          "type": "address"
        }
      ],
      "stateMutability": "nonpayable",
      "type": "constructor"
    },
    {
      "anonymous": false,
      "inputs": [
        {
          "indexed": true,
          "internalType": "uint256",
          "name": "auctionId",
          "type": "uint256"
        },
        {
          "indexed": false,
          "internalType": "uint256",
          "name": "tokenId",
          "type": "uint256"
        },
        {
          "indexed": false,
          "internalType": "address",
          "name": "seller",
          "type": "address"
        },
        {
          "indexed": false,
          "internalType": "uint256",
          "name": "startPrice",
          "type": "uint256"
        },
        {
          "indexed": false,
          "internalType": "uint256",
          "name": "minIncrement",
          "type": "uint256"
        },
        {
          "indexed": false,
          "internalType": "uint256",
          "name": "endTime",
          "type": "uint256"
        }
      ],
      "name": "AuctionCreated",
      "type": "event"
    },
    {
      "anonymous": false,
      "inputs": [
        {
          "indexed": true,
          "internalType": "uint256",
          "name": "auctionId",
          "type": "uint256"
        },
        {
          "indexed": false,
          "internalType": "address",
          "name": "winner",
          "type": "address"
        },
        {
          "indexed": false,
          "internalType": "uint256",
          "name": "winningBid",
          "type": "uint256"
        }
      ],
      "name": "AuctionEnded",
      "type": "event"
    },
    {
      "anonymous": false,
      "inputs": [
        {
          "indexed": true,
          "internalType": "uint256",
          "name": "auctionId",
          "type": "uint256"
        },
        {
          "indexed": false,
          "internalType": "address",
          "name": "bidder",
          "type": "address"
        },
        {
          "indexed": false,
          "internalType": "uint256",
          "name": "amount",
          "type": "uint256"
        },
        {
          "indexed": false,
          "internalType": "uint256",
          "name": "ackTime",
          "type": "uint256"
        }
      ],
      "name": "BidPlaced",
      "type": "event"
    },
    {
      "anonymous": false,
      "inputs": [
        {
          "indexed": true,
          "internalType": "address",
          "name": "previousOwner",
          "type": "address"
        },
        {
          "indexed": true,
          "internalType": "address",
          "name": "newOwner",
          "type": "address"
        }
      ],
      "name": "OwnershipTransferred",
      "type": "event"
    },
    {
      "inputs": [
        {
          "internalType": "uint256",
          "name": "",
          "type": "uint256"
        }
      ],
      "name": "activeAuctions",
      "outputs": [
        {
          "internalType": "uint256",
          "name": "",
          "type": "uint256"
        }
      ],
      "stateMutability": "view",
      "type": "function"
    },
    {
      "inputs": [],
      "name": "auctionCount",
      "outputs": [
        {
          "internalType": "uint256",
          "name": "",
          "type": "uint256"
        }
      ],
      "stateMutability": "view",
      "type": "function"
    },
    {
      "inputs": [
        {
          "internalType": "uint256",
          "name": "",
          "type": "uint256"
        }
      ],
      "name": "auctions",
      "outputs": [
        {
          "internalType": "address",
          "name": "seller",
          "type": "address"
        },
        {
          "internalType": "uint256",
          "name": "tokenId",
          "type": "uint256"
        },
        {
          "internalType": "uint256",
          "name": "startPrice",
          "type": "uint256"
        },
        {
          "internalType": "uint256",
          "name": "highestBid",
          "type": "uint256"
        },
        {
          "internalType": "address",
          "name": "highestBidder",
          "type": "address"
        },
        {
          "internalType": "uint256",
          "name": "endTime",
          "type": "uint256"
        },
        {
          "internalType": "uint256",
          "name": "minIncrement",
          "type": "uint256"
        },
        {
          "internalType": "bool",
          "name": "isActive",
          "type": "bool"
        }
      ],
      "stateMutability": "view",
      "type": "function"
    },
    {
      "inputs": [
        {
          "internalType": "bytes",
          "name": "",
          "type": "bytes"
        }
      ],
      "name": "checkUpkeep",
      "outputs": [
        {
          "internalType": "bool",
          "name": "upkeepNeeded",
          "type": "bool"
        },
        {
          "internalType": "bytes",
          "name": "performData",
          "type": "bytes"
        }
      ],
      "stateMutability": "view",
      "type": "function"
    },
    {
      "inputs": [
        {
          "internalType": "uint256",
          "name": "tokenId",
          "type": "uint256"
        },
        {
          "internalType": "uint256",
          "name": "startPrice",
          "type": "uint256"
        },
        {
          "internalType": "uint256",
          "name": "minIncrement",
          "type": "uint256"
        },
        {
          "internalType": "uint256",
          "name": "duration",
          "type": "uint256"
        }
      ],
      "name": "createAuction",
      "outputs": [],
      "stateMutability": "payable",
      "type": "function"
    },
    {
      "inputs": [
        {
          "internalType": "uint256",
          "name": "auctionId",
          "type": "uint256"
        }
      ],
      "name": "endAuction",
      "outputs": [],
      "stateMutability": "nonpayable",
      "type": "function"
    },
    {
      "inputs": [
        {
          "internalType": "uint256",
          "name": "auctionId",
          "type": "uint256"
        }
      ],
      "name": "getAuction",
      "outputs": [
        {
          "components": [
            {
              "internalType": "address",
              "name": "seller",
              "type": "address"
            },
            {
              "internalType": "uint256",
              "name": "tokenId",
              "type": "uint256"
            },
            {
              "internalType": "uint256",
              "name": "startPrice",
              "type": "uint256"
            },
            {
              "internalType": "uint256",
              "name": "highestBid",
              "type": "uint256"
            },
            {
              "internalType": "address",
              "name": "highestBidder",
              "type": "address"
            },
            {
              "internalType": "uint256",
              "name": "endTime",
              "type": "uint256"
            },
            {
              "internalType": "uint256",
              "name": "minIncrement",
              "type": "uint256"
            },
            {
              "internalType": "bool",
              "name": "isActive",
              "type": "bool"
            }
          ],
          "internalType": "struct YourCollectibleAuction.Auction",
          "name": "",
          "type": "tuple"
        }
      ],
      "stateMutability": "view",
      "type": "function"
    },
    {
      "inputs": [],
      "name": "getContractBalance",
      "outputs": [
        {
          "internalType": "uint256",
          "name": "",
          "type": "uint256"
        }
      ],
      "stateMutability": "view",
      "type": "function"
    },
    {
      "inputs": [],
      "name": "nftContract",
      "outputs": [
        {
          "internalType": "contract YourCollectible",
          "name": "",
          "type": "address"
        }
      ],
      "stateMutability": "view",
      "type": "function"
    },
    {
      "inputs": [
        {
          "internalType": "address",
          "name": "",
          "type": "address"
        },
        {
          "internalType": "address",
          "name": "",
          "type": "address"
        },
        {
          "internalType": "uint256",
          "name": "",
          "type": "uint256"
        },
        {
          "internalType": "bytes",
          "name": "",
          "type": "bytes"
        }
      ],
      "name": "onERC721Received",
      "outputs": [
        {
          "internalType": "bytes4",
          "name": "",
          "type": "bytes4"
        }
      ],
      "stateMutability": "pure",
      "type": "function"
    },
    {
      "inputs": [],
      "name": "owner",
      "outputs": [
        {
          "internalType": "address",
          "name": "",
          "type": "address"
        }
      ],
      "stateMutability": "view",
      "type": "function"
    },
    {
      "inputs": [
        {
          "internalType": "bytes",
          "name": "performData",
          "type": "bytes"
        }
      ],
      "name": "performUpkeep",
      "outputs": [],
      "stateMutability": "nonpayable",
      "type": "function"
    },
    {
      "inputs": [
        {
          "internalType": "uint256",
          "name": "auctionId",
          "type": "uint256"
        },
        {
          "internalType": "uint256",
          "name": "ackTime",
          "type": "uint256"
        }
      ],
      "name": "placeBid",
      "outputs": [],
      "stateMutability": "payable",
      "type": "function"
    },
    {
      "inputs": [],
      "name": "renounceOwnership",
      "outputs": [],
      "stateMutability": "nonpayable",
      "type": "function"
    },
    {
      "inputs": [
        {
          "internalType": "address",
          "name": "newOwner",
          "type": "address"
        }
      ],
      "name": "transferOwnership",
      "outputs": [],
      "stateMutability": "nonpayable",
      "type": "function"
    },
    {
      "inputs": [],
      "name": "withdraw",
      "outputs": [],
      "stateMutability": "nonpayable",
      "type": "function"
    }
  ],
  "transactionHash": "0x3564424cff38ecc59eecbbf38b1fb41423bd8f4f9b0be86d89b5a45356722803",
  "args": [
    "0x30ecbdB14Dc042E4e68aA5181de4f5B317b23eB7"
  ],
  "numDeployments": 18,
  "solcInputHash": "6cabe9d7ee3cf3b7d542f099810e527a",
  "bytecode": "0x608060405234801561001057600080fd5b5060405161198d38038061198d83398101604081905261002f916100ad565b6100383361005d565b600480546001600160a01b0319166001600160a01b03929092169190911790556100dd565b600080546001600160a01b038381166001600160a01b0319831681178455604051919092169283917f8be0079c531659141344cd1fd0a4f28419497f9722a3daafe3b4186f6b6457e09190a35050565b6000602082840312156100bf57600080fd5b81516001600160a01b03811681146100d657600080fd5b9392505050565b6118a1806100ec6000396000f3fe6080604052600436106100f35760003560e01c80636f9fb98a1161008a5780638da5cb5b116100595780638da5cb5b14610386578063b9a2de3a146103b8578063d56d229d146103d8578063f2fde38b146103f857600080fd5b80636f9fb98a146102af578063715018a6146102c257806378bd7935146102d7578063790d85961461036657600080fd5b80634585e33b116100c65780634585e33b14610190578063571a26a0146101b057806357c90de51461026e5780636e04ff0d1461028157600080fd5b8063150b7a02146100f85780632ad71573146101425780633ccfd60b14610166578063431f21da1461017d575b600080fd5b34801561010457600080fd5b506101246101133660046114cc565b630a85bd0160e11b95945050505050565b6040516001600160e01b031990911681526020015b60405180910390f35b34801561014e57600080fd5b5061015860015481565b604051908152602001610139565b34801561017257600080fd5b5061017b610418565b005b61017b61018b36600461153f565b6104a9565b34801561019c57600080fd5b5061017b6101ab366004611571565b610a14565b3480156101bc57600080fd5b5061021f6101cb3660046115b3565b6002602081905260009182526040909120805460018201549282015460038301546004840154600585015460068601546007909601546001600160a01b039586169796949593949390921692909160ff1688565b604080516001600160a01b03998a168152602081019890985287019590955260608601939093529416608084015260a083019390935260c082019290925290151560e082015261010001610139565b61017b61027c3660046115cc565b610ab0565b34801561028d57600080fd5b506102a161029c366004611571565b610d31565b6040516101399291906115ee565b3480156102bb57600080fd5b5047610158565b3480156102ce57600080fd5b5061017b610f04565b3480156102e357600080fd5b506102f76102f23660046115b3565b610f18565b604051610139919060006101008201905060018060a01b038084511683526020840151602084015260408401516040840152606084015160608401528060808501511660808401525060a083015160a083015260c083015160c083015260e0830151151560e083015292915050565b34801561037257600080fd5b506101586103813660046115b3565b610ff2565b34801561039257600080fd5b506000546001600160a01b03165b6040516001600160a01b039091168152602001610139565b3480156103c457600080fd5b5061017b6103d33660046115b3565b611013565b3480156103e457600080fd5b506004546103a0906001600160a01b031681565b34801561040457600080fd5b5061017b610413366004611646565b61129a565b610420611313565b478061046c5760405162461bcd60e51b81526020600482015260166024820152754e6f2062616c616e636520746f20776974686472617760501b60448201526064015b60405180910390fd5b600080546040516001600160a01b039091169183156108fc02918491818181858888f193505050501580156104a5573d6000803e3d6000fd5b5050565b6004805460408051631a86dfb360e21b815290516001600160a01b0390921692636a1b7ecc9282820192602092908290030181865afa1580156104f0573d6000803e3d6000fd5b505050506040513d601f19601f82011682018060405250810190610514919061166a565b3410156105595760405162461bcd60e51b8152602060048201526013602482015272131a5cdd1a5b99c8199959481b9bdd081b595d606a1b6044820152606401610463565b600480546040516331a9108f60e11b815291820186905233916001600160a01b0390911690636352211e90602401602060405180830381865afa1580156105a4573d6000803e3d6000fd5b505050506040513d601f19601f820116820180604052508101906105c89190611683565b6001600160a01b0316146106285760405162461bcd60e51b815260206004820152602160248201527f596f7520617265206e6f7420746865206f776e6572206f662074686973204e466044820152601560fa1b6064820152608401610463565b6004805460405163020604bf60e21b815291820186905230916001600160a01b039091169063081812fc90602401602060405180830381865afa158015610673573d6000803e3d6000fd5b505050506040513d601f19601f820116820180604052508101906106979190611683565b6001600160a01b0316148061071a57506004805460405163e985e9c560e01b815233928101929092523060248301526001600160a01b03169063e985e9c590604401602060405180830381865afa1580156106f6573d6000803e3d6000fd5b505050506040513d601f19601f8201168201806040525081019061071a91906116a0565b6107665760405162461bcd60e51b815260206004820152601d60248201527f41756374696f6e20636f6e7472616374206e6f7420617070726f7665640000006044820152606401610463565b600082116107c75760405162461bcd60e51b815260206004820152602860248201527f4d696e696d756d20696e6372656d656e74206d75737420626520677265617465604482015267072207468616e20360c41b6064820152608401610463565b600081116108175760405162461bcd60e51b815260206004820152601f60248201527f4475726174696f6e206d7573742062652067726561746572207468616e2030006044820152606401610463565b60048054604051632142170760e11b81523392810192909252306024830152604482018690526001600160a01b0316906342842e0e90606401600060405180830381600087803b15801561086a57600080fd5b505af115801561087e573d6000803e3d6000fd5b5050604080516101008101825233815260208101889052908101869052600060608201819052608082015291505060a081016108ba83426116d8565b8152602080820185905260016040928301819052805460009081526002808452848220865181546001600160a01b039182166001600160a01b031991821617835595880151828601559587015191810191909155606086015160038083019190915560808701516004830180549190971695169490941790945560a0850151600585015560c0850151600685015560e0909401516007909301805493151560ff199094169390931790925581548154928301825592527fc2575a0e9e593c00f959f8c92f12db2869c3395a3b0502d05e2516446f71f85b018190557f56102b55f8c4ba831c7d439c06939c7e1fe545abbd4f8a71737c2a9b0f7e8584853386866109c487426116d8565b604080519586526001600160a01b039094166020860152928401919091526060830152608082015260a00160405180910390a26001806000828254610a0991906116d8565b909155505050505050565b600080610a2383850185611707565b9150915060005b81811015610aa9576000838281518110610a4657610a466117cb565b6020908102919091018101516000818152600290925260409091206007015490915060ff168015610a8857506000818152600260205260409020600501544210155b15610a9657610a9681611013565b5080610aa1816117e1565b915050610a2a565b5050505050565b6000828152600260205260409020600781015460ff16610b0a5760405162461bcd60e51b815260206004820152601560248201527441756374696f6e206973206e6f742061637469766560581b6044820152606401610463565b80600501548210610b515760405162461bcd60e51b8152602060048201526011602482015270105d58dd1a5bdb881a185cc8195b991959607a1b6044820152606401610463565b80546001600160a01b03163303610bb95760405162461bcd60e51b815260206004820152602660248201527f53656c6c65722063616e6e6f7420626964206f6e207468656972206f776e20616044820152653ab1ba34b7b760d11b6064820152608401610463565b8060020154341015610c195760405162461bcd60e51b8152602060048201526024808201527f426964206d757374206265206174206c656173742074686520737461727420706044820152637269636560e01b6064820152608401610463565b80600601548160030154610c2d91906116d8565b341015610c745760405162461bcd60e51b815260206004820152601560248201527442696420696e6372656d656e7420746f6f206c6f7760581b6044820152606401610463565b60048101546001600160a01b031615610cc957600481015460038201546040516001600160a01b039092169181156108fc0291906000818181858888f19350505050158015610cc7573d6000803e3d6000fd5b505b34600382018190556004820180546001600160a01b0319163390811790915560408051918252602082019290925290810183905283907f51db8e23b3f4479b162fd48823b8402895442b8f6cfd94f66239391881ec7b6f9060600160405180910390a2505050565b600060606000805b600354811015610dc057600060038281548110610d5857610d586117cb565b6000918252602080832090910154808352600290915260409091206007015490915060ff168015610d9a57506000818152600260205260409020600501544210155b15610dad5782610da9816117e1565b9350505b5080610db8816117e1565b915050610d39565b508015610ee85760008167ffffffffffffffff811115610de257610de26116f1565b604051908082528060200260200182016040528015610e0b578160200160208202803683370190505b5090506000805b600354811015610eb757600060038281548110610e3157610e316117cb565b6000918252602080832090910154808352600290915260409091206007015490915060ff168015610e7357506000818152600260205260409020600501544210155b15610ea45780848481518110610e8b57610e8b6117cb565b602090810291909101015282610ea0816117e1565b9350505b5080610eaf816117e1565b915050610e12565b5060018284604051602001610ecd9291906117fa565b60405160208183030381529060405294509450505050610efd565b50506040805160208101909152600080825291505b9250929050565b610f0c611313565b610f16600061136d565b565b610f7460405180610100016040528060006001600160a01b0316815260200160008152602001600081526020016000815260200160006001600160a01b0316815260200160008152602001600081526020016000151581525090565b5060009081526002602081815260409283902083516101008101855281546001600160a01b0390811682526001830154938201939093529281015493830193909352600383015460608301526004830154166080820152600582015460a0820152600682015460c082015260079091015460ff16151560e082015290565b6003818154811061100257600080fd5b600091825260209091200154905081565b6000818152600260205260409020600781015460ff1661106d5760405162461bcd60e51b815260206004820152601560248201527441756374696f6e206973206e6f742061637469766560581b6044820152606401610463565b80600501544210156110c15760405162461bcd60e51b815260206004820152601960248201527f41756374696f6e20686173206e6f7420656e64656420796574000000000000006044820152606401610463565b60078101805460ff191690556110d6826113bd565b60048101546001600160a01b0316156111f05760048054828201546001840154604051632142170760e11b815230948101949094526001600160a01b039182166024850152604484015216906342842e0e90606401600060405180830381600087803b15801561114557600080fd5b505af1158015611159573d6000803e3d6000fd5b5050825460038401546040516001600160a01b03909216935080156108fc029250906000818181858888f1935050505015801561119a573d6000803e3d6000fd5b5060048101546003820154604080516001600160a01b039093168352602083019190915283917fd2aa34a4fdbbc6dff6a3e56f46e0f3ae2a31d7785ff3487aa5c95c642acea50191015b60405180910390a25050565b6004805482546001840154604051632142170760e11b815230948101949094526001600160a01b039182166024850152604484015216906342842e0e90606401600060405180830381600087803b15801561124a57600080fd5b505af115801561125e573d6000803e3d6000fd5b505060408051600080825260208201528593507fd2aa34a4fdbbc6dff6a3e56f46e0f3ae2a31d7785ff3487aa5c95c642acea5019250016111e4565b6112a2611313565b6001600160a01b0381166113075760405162461bcd60e51b815260206004820152602660248201527f4f776e61626c653a206e6577206f776e657220697320746865207a65726f206160448201526564647265737360d01b6064820152608401610463565b6113108161136d565b50565b6000546001600160a01b03163314610f165760405162461bcd60e51b815260206004820181905260248201527f4f776e61626c653a2063616c6c6572206973206e6f7420746865206f776e65726044820152606401610463565b600080546001600160a01b038381166001600160a01b0319831681178455604051919092169283917f8be0079c531659141344cd1fd0a4f28419497f9722a3daafe3b4186f6b6457e09190a35050565b60005b6003548110156104a55781600382815481106113de576113de6117cb565b90600052602060002001540361146357600380546113fe90600190611842565b8154811061140e5761140e6117cb565b90600052602060002001546003828154811061142c5761142c6117cb565b600091825260209091200155600380548061144957611449611855565b600190038181906000526020600020016000905590555050565b8061146d816117e1565b9150506113c0565b6001600160a01b038116811461131057600080fd5b60008083601f84011261149c57600080fd5b50813567ffffffffffffffff8111156114b457600080fd5b602083019150836020828501011115610efd57600080fd5b6000806000806000608086880312156114e457600080fd5b85356114ef81611475565b945060208601356114ff81611475565b935060408601359250606086013567ffffffffffffffff81111561152257600080fd5b61152e8882890161148a565b969995985093965092949392505050565b6000806000806080858703121561155557600080fd5b5050823594602084013594506040840135936060013592509050565b6000806020838503121561158457600080fd5b823567ffffffffffffffff81111561159b57600080fd5b6115a78582860161148a565b90969095509350505050565b6000602082840312156115c557600080fd5b5035919050565b600080604083850312156115df57600080fd5b50508035926020909101359150565b821515815260006020604081840152835180604085015260005b8181101561162457858101830151858201606001528201611608565b506000606082860101526060601f19601f830116850101925050509392505050565b60006020828403121561165857600080fd5b813561166381611475565b9392505050565b60006020828403121561167c57600080fd5b5051919050565b60006020828403121561169557600080fd5b815161166381611475565b6000602082840312156116b257600080fd5b8151801515811461166357600080fd5b634e487b7160e01b600052601160045260246000fd5b808201808211156116eb576116eb6116c2565b92915050565b634e487b7160e01b600052604160045260246000fd5b6000806040838503121561171a57600080fd5b823567ffffffffffffffff8082111561173257600080fd5b818501915085601f83011261174657600080fd5b813560208282111561175a5761175a6116f1565b8160051b604051601f19603f8301168101818110868211171561177f5761177f6116f1565b60405292835281830193508481018201928984111561179d57600080fd5b948201945b838610156117bb578535855294820194938201936117a2565b9997909101359750505050505050565b634e487b7160e01b600052603260045260246000fd5b6000600182016117f3576117f36116c2565b5060010190565b604080825283519082018190526000906020906060840190828701845b8281101561183357815184529284019290840190600101611817565b50505092019290925292915050565b818103818111156116eb576116eb6116c2565b634e487b7160e01b600052603160045260246000fdfea2646970667358221220ba0b9e81304488531e235ca4eec18e7579e8759c33d334cea9181808ac1aa14964736f6c63430008140033",
  "devdoc": {
    "kind": "dev",
    "methods": {
      "owner()": {
        "details": "Returns the address of the current owner."
      },
      "performUpkeep(bytes)": {
        "details": "The input to this method should not be trusted, and the caller of the method should not even be restricted to any single registry. Anyone should be able call it, and the input should be validated, there is no guarantee that the data passed in is the performData returned from checkUpkeep. This could happen due to malicious keepers, racing keepers, or simply a state change while the performUpkeep transaction is waiting for confirmation. Always validate the data passed in.",
        "params": {
          "performData": "is the data which was passed back from the checkData simulation. If it is encoded, it can easily be decoded into other types by calling `abi.decode`. This data should not be trusted, and should be validated against the contract's current state."
        }
      },
      "renounceOwnership()": {
        "details": "Leaves the contract without owner. It will not be possible to call `onlyOwner` functions. Can only be called by the current owner. NOTE: Renouncing ownership will leave the contract without an owner, thereby disabling any functionality that is only available to the owner."
      },
      "transferOwnership(address)": {
        "details": "Transfers ownership of the contract to a new account (`newOwner`). Can only be called by the current owner."
      }
    },
    "version": 1
  },
  "userdoc": {
    "kind": "user",
    "methods": {
      "performUpkeep(bytes)": {
        "notice": "method that is actually executed by the keepers, via the registry. The data returned by the checkUpkeep simulation will be passed into this method to actually be executed."
      }
    },
    "version": 1
  },
  "storageLayout": {
    "storage": [
      {
        "astId": 75,
        "contract": "contracts/YourCollectibleAuction.sol:YourCollectibleAuction",
        "label": "_owner",
        "offset": 0,
        "slot": "0",
        "type": "t_address"
      },
      {
        "astId": 5377,
        "contract": "contracts/YourCollectibleAuction.sol:YourCollectibleAuction",
        "label": "auctionCount",
        "offset": 0,
        "slot": "1",
        "type": "t_uint256"
      },
      {
        "astId": 5382,
        "contract": "contracts/YourCollectibleAuction.sol:YourCollectibleAuction",
        "label": "auctions",
        "offset": 0,
        "slot": "2",
        "type": "t_mapping(t_uint256,t_struct(Auction)5375_storage)"
      },
      {
        "astId": 5385,
        "contract": "contracts/YourCollectibleAuction.sol:YourCollectibleAuction",
        "label": "activeAuctions",
        "offset": 0,
        "slot": "3",
        "type": "t_array(t_uint256)dyn_storage"
      },
      {
        "astId": 5388,
        "contract": "contracts/YourCollectibleAuction.sol:YourCollectibleAuction",
        "label": "nftContract",
        "offset": 0,
        "slot": "4",
        "type": "t_contract(YourCollectible)5343"
      }
    ],
    "types": {
      "t_address": {
        "encoding": "inplace",
        "label": "address",
        "numberOfBytes": "20"
      },
      "t_array(t_uint256)dyn_storage": {
        "base": "t_uint256",
        "encoding": "dynamic_array",
        "label": "uint256[]",
        "numberOfBytes": "32"
      },
      "t_bool": {
        "encoding": "inplace",
        "label": "bool",
        "numberOfBytes": "1"
      },
      "t_contract(YourCollectible)5343": {
        "encoding": "inplace",
        "label": "contract YourCollectible",
        "numberOfBytes": "20"
      },
      "t_mapping(t_uint256,t_struct(Auction)5375_storage)": {
        "encoding": "mapping",
        "key": "t_uint256",
        "label": "mapping(uint256 => struct YourCollectibleAuction.Auction)",
        "numberOfBytes": "32",
        "value": "t_struct(Auction)5375_storage"
      },
      "t_struct(Auction)5375_storage": {
        "encoding": "inplace",
        "label": "struct YourCollectibleAuction.Auction",
        "members": [
          {
            "astId": 5360,
            "contract": "contracts/YourCollectibleAuction.sol:YourCollectibleAuction",
            "label": "seller",
            "offset": 0,
            "slot": "0",
            "type": "t_address"
          },
          {
            "astId": 5362,
            "contract": "contracts/YourCollectibleAuction.sol:YourCollectibleAuction",
            "label": "tokenId",
            "offset": 0,
            "slot": "1",
            "type": "t_uint256"
          },
          {
            "astId": 5364,
            "contract": "contracts/YourCollectibleAuction.sol:YourCollectibleAuction",
            "label": "startPrice",
            "offset": 0,
            "slot": "2",
            "type": "t_uint256"
          },
          {
            "astId": 5366,
            "contract": "contracts/YourCollectibleAuction.sol:YourCollectibleAuction",
            "label": "highestBid",
            "offset": 0,
            "slot": "3",
            "type": "t_uint256"
          },
          {
            "astId": 5368,
            "contract": "contracts/YourCollectibleAuction.sol:YourCollectibleAuction",
            "label": "highestBidder",
            "offset": 0,
            "slot": "4",
            "type": "t_address"
          },
          {
            "astId": 5370,
            "contract": "contracts/YourCollectibleAuction.sol:YourCollectibleAuction",
            "label": "endTime",
            "offset": 0,
            "slot": "5",
            "type": "t_uint256"
          },
          {
            "astId": 5372,
            "contract": "contracts/YourCollectibleAuction.sol:YourCollectibleAuction",
            "label": "minIncrement",
            "offset": 0,
            "slot": "6",
            "type": "t_uint256"
          },
          {
            "astId": 5374,
            "contract": "contracts/YourCollectibleAuction.sol:YourCollectibleAuction",
            "label": "isActive",
            "offset": 0,
            "slot": "7",
            "type": "t_bool"
          }
        ],
        "numberOfBytes": "256"
      },
      "t_uint256": {
        "encoding": "inplace",
        "label": "uint256",
        "numberOfBytes": "32"
      }
    }
  }
}